:10006100AAF0AB83E582900000F0A3EBF0A3EAF0E5
:1000710074B3C0E07421C0E07480C0E01218F815B8
:10008100811581158174B8C0E07421C0E07480C00D
:10009100E01218F8158115811581900000E0FAA38E
:1000A100E0FBA3E0FC74082AFDE43BFE8C078D8293
:1000B1008E838FF0122197FDA3122197FEC002C0FB
:1000C10003C004C005C00674DBC0E07421C0E07445
:1000D10080C0E01218F8E58124FBF581D004D0033B
:1000E100D0028A828B838CF0122197FDA312219773
:1000F100FE7F00C002C003C004C005C006C0077473
:10010100F1C0E07421C0E07480C0E01218F8E5810C
:1001110024FAF581D004D003D00274022AFDE43B15
:10012100FE8C078D828E838FF0122197FDA3122101
:1001310097FE7F00C002C003C004C005C006C0070F
:100141007407C0E07422C0E07480C0E01218F8E5C2
:100151008124FAF581D004D003D00274062AFDE48B
:100161003BFE8C078D828E838FF0122197F8A312AC
:100171002197F9C002C003C004C005C006C007C072
:1001810000C001741DC0E07422C0E07480C0E012A0
:1001910018F8E58124FBF581D007D006D005D004FD
:1001A100D003D00274042AFAE43BFB8A828B838C4D
:1001B100F0122197F8A3122197F9C002C003C004DD
:1001C100C005C006C007C000C0017433C0E074227E
:1001D100C0E07480C0E01218F8E58124FBF581D0FD
:1001E10007D006D005D004D003D0028D828E838F34
:1001F100F0122197FDA3122197FE8A828B838CF046
:10020100122197FAA3122197FBEDC39AFDEE9BFEF3
:10021100C005C0067449C0E07422C0E07480C0E02B
:100221001218F8E58124FBF58122AAF0AB83E5825F
:10023100900003F0A3EBF0A3EAF0900006E4F0A332
:10024100F0745FC0E07422C0E07480C0E01218F85E
:10025100158115811581900003E0FAA3E0FBA3E06D
:10026100FC8A828B838CF0122197FDA3122197FEC9
:1002710074042AFFE43BF88C0174022AFAE43BFB84
:10028100C007C000C0018A828B838CF0122197F5D0
:1002910022A3122197F5238D018E07C3E99522EF41
:1002A1009523D001D000D007400302045AC002C0F8
:1002B10003C0048D028E037C00C002C003C004C0D1
:1002C10005C006C007C000C001C002C003C004745D
:1002D1006DC0E07422C0E07480C0E01218F8E581BE
:1002E10024FAF581D001D000D007D006D005D00482
:1002F100D003D002D004D003D0028D228E238D24CE
:100301008E25900006E0F526A3E0F527E4F528F513
:1003110029C3E5289410E5296480948040030204F0
:1003210011C002C003C0048F82888389F012219713
:10033100F52AA3122197F52BAC26AA27C3EC952AFF
:10034100EA952BD004D003D002400302040630000A
:1003510057C002C003C004E5282524F582E52935EC
:1003610025F583E0FA7B00C002C003C004C005C0CC
:1003710006C007C000C001C002C0037472C0E074AF
:1003810022C0E07480C0E01218F8E58124FBF581F9
:10039100D001D000D007D006D005D004D003D002C0
:1003A100D004D003D0028055C002C003C004E528A8
:1003B1002522F582E5293523F583E0FA7B00C00289
:1003C100C003C004C005C006C007C000C001C00210
:1003D100C0037476C0E07422C0E07480C0E01218DB
:1003E100F8E58124FBF581D001D000D007D006D0FB
:1003F10005D004D003D002D004D003D0020526E4F6
:10040100B5260205270528E4B528020529020312AD
:10041100900006E526F0A3E527F0C002C003C00462
:10042100C005C006C007C000C001747AC0E07422D4
:10043100C0E07480C0E01218F8158115811581D0D3
:1004410001D000D007D006D005D004D003D002746B
:10045100102DFDE43EFE020281747AC0E07422C0D8
:10046100E07480C0E01218F815811581158122AA67
:10047100F0AB83E582900008F0A3EBF0A3EAF090E3
:100481000008E0FAA3E0FBA3E0FC8A828B838CF0F6
:10049100120061900008E0FAA3E0FBA3E0FCA201D6
:1004A10092008A828B838CF002022BAAF0AB83E547
:1004B1008290000BF0A3EBF0A3EAF090000BE0FABE
:1004C100A3E0FBA3E0FC74082AFDE43BFE8C078D4E
:1004D100828E838FF0122197FDA3122197FEC00215
:1004E100C003C004C005C006747DC0E07422C0E032
:1004F1007480C0E01218F8E58124FBF581D004D0A6
:1005010003D00274042AFAE43BFB8A828B838CF0C9
:10051100E4121839A3E4021839AAF0AB83E58290FA
:100521000011F0A3EBF0A3EAF0900011E0F52CA389
:10053100E0F52DA3E0F52E7406252CFDE4352DFE06
:10054100AF2E8D828E838FF0122197F532A3122167
:1005510097F53390000EE0FFA3E0F8A3E0F97406ED
:100561002FFAE438FB89048A828B838CF01221975D
:10057100F534A3122197F535E532B53407E533B5E6
:10058100350280167491C0E07422C0E07480C0E02E
:100591001218F815811581158122E4F52FF530C364
:1005A100E52F9532E530953350548F82888389F059
:1005B100122197FCA3122197FAE52F2CFCE5303A82
:1005C100FA8C828A83E0F531852C82852D83852EF4
:1005D100F0122197FBA3122197FDE52F2BFBE530AC
:1005E1003DFD8B828D83E0FE8C828A83F08B828D30
:1005F10083E531F0052FE4B52FA5053080A1740402
:100601002FF536E438F53789388536828537838585
:1006110038F0122197F52FA3122197F53074042594
:100621002CFAE4352DFBAC2E8A828B838CF01221BF
:1006310097FDA3122197FE8536828537838538F091
:10064100ED121839A3EE1218398A828B838CF0E5EA
:100651002F121839A3E5301218397402252CFAE447
:10066100352DFBAC2E852C82852D83852EF0122114
:1006710097FDA3122197FEE5322DFDE5333EFE8A5B
:10068100828B838CF0ED121839A3EE1218397402A3
:100691002FFAE438FB89048F82888389F01221972D
:1006A100FFA3122197F8E5342FFFE53538F88A8248
:1006B1008B838CF0EF121839A3E8021839AAF0AB3A
:1006C10083E582900018F0A3EBF0A3EAF090001804
:1006D100E0FAA3E0FBA3E0FC900014E0FDA3E0FE40
:1006E1008D828E83C002C003C004C005C0061216ED
:1006F100FDAF82A883D006D005D004D003D0028AF2
:10070100828B838CF0EF121839A3E8121839BF00DD
:100711002AB80027C005C006900016E0C0E0A3E09B
:10072100C0E074C3C0E07422C0E07480C0E012185D
:10073100F8E58124F9F581E424FF2274062AF539CC
:10074100E43BF53A8C3B853982853A83853BF0ED74
:10075100121839A3EE12183974022AFDE43BFE8CFB
:10076100078A828B838CF0122197F53CA312219783
:10077100F53D853982853A83853BF0122197F8A3AF
:10078100122197F9E8253CF8E9353DF98D828E83F0
:100791008FF0E8121839A3E912183974042AFDE41C
:1007A1003BFE8C078D828E838FF0E4121839A3E40F
:1007B10012183974082AFDE43BFE8C07900016E0FC
:1007C100F8A3E0F98D828E838FF0E8121839A3E93E
:1007D100121839740A2AFAE43BFB8A828B838CF063
:1007E1007401121839A3E4121839740124FF22AAE2
:1007F100F0AB83E58290001BF0A3EBF0A3EAF0904D
:10080100001BE0FAA3E0FBA3E0FC8A828B838CF05F
:10081100122197FDA3122197FE7F008D828E838F77
:10082100F0C002C003C0041214D9D004D003D00216
:10083100740A2AFAE43BFB8A828B838CF0E4121857
:0608410039A3E40218399E
:1021B3000D0A0D0A002A2A2A2A2A2A2A2A2A2A2A20
:1021C3002A2A2A2A2A2A2A2A2A2A2A2A2A2A2A2A6C
:1021D3002A2A2A2A2A0D0A00427566666572204E4B
:1021E300756D6265723A20202025640D0A005374D0
:1021F30061727420416464726573733A20202025F0
:10220300700D0A00456E6420416464726573733A0D
:10221300202020202025700D0A0042756666657215
:102223002053697A653A202020202025640D0A0076
:10223300427974657320557365643A202020202009
:102243002025640D0A0042797465732052656D611F
:10225300696E696E673A2025640D0A00436F6E74D8
:10226300656E74733A0D0A0D0A0025703A20002535
:10227300782000256320000D0A00427566666572AA
:1022830020256420436C65617265640D0A00436117
:102293006E2774207377617020627566666572209D
:1022A300636F6E74656E74732077697468206469F4
:1022B30066666572656E742073697A65730D0A00CC
:1022C3000D0A4572726F722E204275666665722022
:1022D3002564206F662073697A6520256420616C0C
:1022E3006C6F636174696F6E206661696C65640D00
:0222F3000A00DF
:03000000020003F8
:05005C00C2020208478A
:100847001211F080FEAA83E58290001FF0A3EAF060
:1008570090001FE0FAA3E0FB90001EE0FC8A828B69
:1008670083F022438E0C90000022D203900B7B74FE
:10087700FFF0A3F0900B7DE4F0A3F090001E74024C
:10088700F090FFFF12084C900B117464F0E4A3F092
:10089700900B11E0FAA3E0FB1ABAFF011B900B4A79
:1008A700740CF0E4A3F08A828B83C002C003121891
:1008B70052AC82AD83D003D002EC2461FCED340648
:1008C700FD740A2CF582E43DF583E4F0A3F0900B68
:1008D70011EAF0A3EBF0900B11E0FAA3E0FB4A70EA
:1008E700AF20030122900B7BE0FAA3E0FBBAFF05E0
:1008F700BBFF028021C374409A74868BF063F0803B
:1009070095F04012EA9420EB648094804008EA5402
:100917000F70030209D07440C0E07406C0E0742071
:10092700C0E0E4C0E074F5C0E07422C0E07480C0A9
:10093700E01218F8E58124F9F58190000A1212787F
:10094700AC82AD83900B7BECF0A3EDF0C3EC94206D
:10095700ED64809480501F7420C0E0E4C0E07441CF
:10096700C0E07423C0E07480C0E01218F8E5812469
:10097700FBF5810208ECC374409C74868DF063F02C
:100987008095F050207440C0E07406C0E0746AC0DF
:10099700E07423C0E07480C0E01218F8E58124FBFE
:1009A700F5810208ECEC540F70030208ECC004C098
:1009B700057490C0E07423C0E07480C0E01218F89A
:1009C700E58124FBF5810208EC900B7DE0FCA3E0B8
:1009D700FD900B4A740CF0E4A3F08C828D83C00267
:1009E700C003121852AC82AD83D003D002EC24614D
:1009F700FCED3406FD7E00900014EAF0A3EBF090C6
:100A07000016E4F0A3F08C828D838EF01206BE925E
:100A170004A204B39203900B7DE0FAA3E0FB900BD2
:100A27007D74012AF0E43BA3F0200362900B7DE084
:100A3700FAA3E0FB900B4A740CF0E4A3F08A828BD4
:100A470083121852AA82AB83EA2461FAEB3406FBBD
:100A57007C00900B7BE0FDA3E0FE900014EDF0A37B
:100A6700EEF09000167401F0E4A3F08A828B838C79
:100A7700F01206BE9204A204B39203900B7DE0FA33
:100A8700A3E0FB900B7D74012AF0E43BA3F0200365
:100A97004290066DE0FAA3E0FB7C00900661E0FD62
:100AA700A3E0FE7F00C002C003C004C005C006C0AB
:100AB70007900B7BE0C0E0A3E0C0E074C0C0E07427
:100AC70023C0E07480C0E01218F8E58124F5F581B1
:100AD7000208E8900B7BE0C0E0A3E0C0E074FAC036
:100AE700E07423C0E07480C0E01218F8E58124FBAD
:100AF700F58190066175F0001207F090066D75F0AC
:100B0700001207F0900B7DE4F0A3F0900B7BE4F06C
:100B1700A3F00208E8900B1374FFF0A3F0900B13F7
:100B2700E0FAA3E0FBBAFF05BBFF02801CC3749089
:100B37009A74818BF063F08095F0400DEA9414EB82
:100B4700648094804003020BE27490C0E07401C09B
:100B5700E07414C0E0E4C0E07439C0E07424C0E07D
:100B67007480C0E01218F8E58124F9F58190000A35
:100B7700121278AA82AB83900B13EAF0A3EBF0C3AF
:100B8700EA9414EB64809480501F7414C0E0E4C0AE
:100B9700E07441C0E07423C0E07480C0E01218F82C
:100BA700E58124FBF581020B24C374909A74818B31
:100BB700F063F08095F04003020B247490C0E0745A
:100BC70001C0E0746AC0E07423C0E07480C0E01222
:100BD70018F8E58124FBF581020B247A017B00904C
:100BE7000B4A740CF0E4A3F08A828B83C002C00323
:100BF700121852AC82AD83D003D002EC2461FCED15
:100C07003406FD740A2CF582E43DF583E0FEA3E08B
:100C1700FF4E602A0ABA00010BC374649A74808B72
:100C2700F063F08095F050B7746FC0E07424C0E0B3
:100C37007480C0E01218F8158115811581227E0095
:100C4700900B13E0FFA3E0F8900014EFF0A3E8F097
:100C5700900016EAF0A3EBF08C828D838EF0C00231
:100C6700C003C007C0001206BED000D007D003D013
:100C7700029205900B7DE0FCA3E0FD900B7D7401D3
:100C87002CF0E43DA3F0300543900B7DE0FCA3E09E
:100C9700FDEC1475F00CA42461F582740635F0F5AB
:100CA70083E0FCA3E0FD7E00C004C005C006C007CA
:100CB700C000C002C003749CC0E07424C0E074800C
:100CC700C0E01218F8E58124F6F58122C007C000BC
:100CD70074D0C0E07424C0E07480C0E01218F8E556
:100CE7008124FBF581900B7DE0FAA3E0FB1ABAFFA4
:100CF700011B900B7DEAF0A3EBF0900B7DE0FAA3CC
:100D0700E0FB900B4A740CF0E4A3F08A828B831209
:100D17001852AA82AB83EA2461FAEB3406FB7C0003
:100D27008A828B838CF00207F074F5C0E07424C0CC
:100D3700E07480C0E01218F81581158115819000C4
:100D47000A121278E5828583F0900B15F0A3E5F07F
:100D5700F0900B15E0FAA3E0FBC374019A74808B43
:100D6700F063F08095F04046BAFE19BBFF16741D7C
:100D7700C0E07425C0E07480C0E01218F815811532
:100D870081158122742AC0E07425C0E07480C0E018
:100D97001218F815811581158190000A121278E54D
:100DA700828583F0900B15F0A3E5F0F080A3900BFC
:100DB7004A740CF0E4A3F08A828B83C002C003124A
:100DC7001852AC82AD83D003D002EC2461FEED341F
:100DD70006FF740A2EF582E43FF583E0FEA3E0FFE9
:100DE7004E604AC004C005C002C0037461C0E0740D
:100DF70025C0E07480C0E01218F8E58124FBF58176
:100E0700D005D004EC2461FCED3406FD7E008C8215
:100E17008D838EF01207F0900B7DE0FCA3E0FD1CA4
:100E2700BCFF011D900B7DECF0A3EDF022C002C0CA
:100E3700037475C0E07425C0E07480C0E01218F830
:100E4700E58124FBF58122E582900B17F090001EC7
:100E57007403F090FFFF12084C900B17E0FAF5822D
:100E6700C00212165FE582D002701A8A82C002128F
:100E7700188FE582D002700D8A82C002121872E5BF
:100E870082D0026060900661E0FBA3E0FC900665FB
:100E9700E0FDA3E0FEED2BFBEE3CFC900663E0FDDE
:100EA700A3E0FEC3EB9DEC9E400122900661E0FBB0
:100EB700A3E0FC900665E0FDA3E0FEED2BFBEE3C16
:100EC700FC900B17E0FF8B828C83F00DBD00010EA9
:100ED700900665EDF0A3EEF0900B7FE02401F0A300
:100EE700E03400F022BA3F028003020F867B007CC9
:100EF70000C3EB9464EC648094805051900B4A7467
:100F07000CF0E4A3F08B828C83C003C00412185248
:100F1700AD82AE83D004D003ED2461FDEE3406FE2E
:100F2700740A2DF582E43EF583E0FFA3E0F84F60F5
:100F3700157F00C2018D828E838FF0C003C004121B
:100F47000470D004D0030BBB00A70C80A4900661EB
:100F570075F0001204AC900B7FE0C0E0A3E0C0E0A6
:100F6700748DC0E07425C0E07480C0E01218F8E505
:100F77008124FBF581900B7FE4F0A3F00211DABA2C
:100F87002B06120B1C0211DABA2D06120D300211B4
:100F9700DABA3D2DD20190066175F0001204709007
:100FA7000B7FE0C0E0A3E0C0E0748DC0E07425C013
:100FB700E07480C0E01218F8E58124FBF581021186
:100FC700DABA2550900677E0FBA3E0FC4B602F9040
:100FD700000E746DF0A37406F0A37400F090066120
:100FE70075F00012051A74BDC0E07425C0E0748066
:100FF700C0E01218F81581158115810211DA74ED18
:10100700C0E07425C0E07480C0E01218F81581159F
:1010170081158122BA4002D202227A007B00C3EAFC
:101027009464EB648094805045900B4A740CF0E410
:10103700A3F08A828B83C002C003121852AC82AD20
:1010470083D003D002EC2461FCED3406FD7E008CD6
:10105700828D838EF0C002C0031207F0D003D00246
:10106700900B7DE4F0A3F00ABA00B30B80B0229096
:10107700001E7401F090FFFF12084C7420C0E0744A
:1010870026C0E07480C0E01218F81581158115811B
:101097007437C0E07426C0E07480C0E01218F815F9
:1010A70081158115817420C0E07426C0E07480C06A
:1010B700E01218F8158115811581744EC0E0742669
:1010C700C0E07480C0E01218F8158115811581748D
:1010D70065C0E07426C0E07480C0E01218F815817E
:1010E700158115817474C0E07426C0E07480C0E077
:1010F7001218F815811581158174B5C0E07426C0E2
:10110700E07480C0E01218F815811581158174BA52
:10111700C0E07426C0E07480C0E01218F81581158D
:1011270081158174F5C0E07426C0E07480C0E012B8
:1011370018F8158115811581743BC0E07427C0E04C
:101147007480C0E01218F81581158115817456C096
:10115700E07427C0E07480C0E01218F8158115818B
:1011670015817477C0E07427C0E07480C0E012185E
:10117700F815811581158174B5C0E07427C0E07436
:1011870080C0E01218F81581158115817425C0E01B
:10119700E4C0E074ECC0E07427C0E07480C0E012E3
:1011A70018F8E58124FBF581741FC0E07428C0E0BE
:1011B7007480C0E01218F815811581158174B5C0C7
:1011C700E07426C0E07480C0E01218F8158115811C
:1011D700158122744CC0E07428C0E07480C0E0120E
:1011E70018F81581158115812290001EE4F090FFF3
:1011F700FF12084CC202900B3D7440F0A37406F036
:1012070090002112167C1214531210761208717472
:1012170073C0E07428C0E07480C0E01218F815812C
:10122700158115811211DAC295B29512126EAA8232
:10123700BA0D0A75820AC00212125CD0028A82C0F5
:101247000212125CD0028A82120E4E10020280D95C
:0512570012102180B41B
:1022F5000D0A456E74657220612073697A652066E2
:102305006F722074686520627566666572732074E5
:102315006861742069732061206D756C7469706CD7
:1023250065206F66203136206265747765656E209D
:10233500256420616E642025643A20000D0A4572EB
:10234500726F722E2056616C7565206D75737420E1
:1023550062652067726561746572207468616E20BC
:1023650025640D0A000D0A4572726F722E205661A2
:102375006C7565206D757374206265206C6573736B
:10238500207468616E2025640D0A000D0A4572727D
:102395006F722E204275666665722053697A6520D4
:1023A5006D7573742062652061206D756C7469703C
:1023B5006C65206F662031360D0A000D0A42756680
:1023C50066657273206F662073697A653A202564A5
:1023D50020616C6C6F636174656420617420616455
:1023E500647265737365733A20257020616E64208D
:1023F50025700D0A000D0A4D616C6C6F63206661D6
:10240500696C656420666F72206275666665722008
:1024150073697A652025642C2063686F6F73652066
:10242500736F6D657468696E6720736D616C6C653B
:10243500720D0A000D0A456E74657220612073697C
:102445007A6520666F7220746865206E65772062F4
:102455007566666572206265747765656E202564AC
:1024650020616E642025643A20000D0A4F757420A2
:102475006F6620706F737369626C6520627566663E
:102485006572732E20416C6C6F636174696F6E2089
:102495006661696C6564000D0A4275666665722041
:1024A5002564206F662073697A653A20256420616A
:1024B5006C6C6F636174656420617420616464721F
:1024C5006573733A202570200D0A000D0A4D616C65
:1024D5006C6F63206661696C656420666F7220624B
:1024E50075666665722073697A652025640D0A0034
:1024F5000D0A456E746572206964206F66206275E9
:102505006666657220796F752077616E7420746FC9
:1025150020667265653A20000D0A43616E63656C3D
:102525006C696E67000D0A43616E277420667265DB
:102535006520627566666572732030206F72203182
:102545002E20456E74657220616E6F746865722009
:102555006275666665722069643A20000D0A4672E6
:102565006565696E6720427566666572202564003B
:102575000D0A496E76616C696420627566666572DE
:102585002069642025642E004E756D626572206F8A
:1025950066206368617261637465727320696E7029
:1025A50075742073696E6365206C61737420273FB1
:1025B500273A2025640D0A000D0A0D0A537761702C
:1025C50070656420636F6E74656E7473206F66202A
:1025D5004275666665723020616E64204275666676
:1025E500657220312E0D0A000D0A43616E27742095
:1025F500737761702E204E65656420746F20616C61
:102605006C6F636174652062756666657220312E34
:1026150020507265737320272B27000D0A2A2A2A5A
:102625002A2A2A2A2A2A2A2A2A2A2A2A2A2A2A2A05
:102635002A000D0A2A2057656C636F6D6520746F3B
:10264500204C61622033202A000D0A417574686FA1
:10265500723A204A6F6579204A61636F627573002B
:102665000D0A4F63746F6265722032303136000D8A
:102675000A456D6265646465642053797374656D9C
:10268500732044657369676E3A2054686520556EFA
:102695006976657273697479206F6620436F6C6F14
:1026A5007261646F20617420426F756C646572009D
:1026B5000D0A0D0A00456E74657220616C706861C3
:1026C500206E756D657269632063686172616374FC
:1026D50065727320746F2073746F726520746865FA
:1026E5006D20696E2062756666657220300D0A0080
:1026F500456E7465722061207370656369616C2035
:1027050063686172616374657220617420616E79BA
:102715002074696D6520746F20706572666F726DC7
:102725002074686520666F6C6C6F77696E67206FC3
:1027350070733A0D0A000D0A272B273A204372655C
:102745006174652061206E657720627566666572C5
:10275500000D0A272D273A2044656C6574652061B4
:102765006E206578697374696E6720627566666543
:1027750072000D0A273F273A20436C65617220637A
:102785006F6E74656E7473206F662042756666653C
:1027950072203020616E6420646973706C617920E9
:1027A500696E20415343494920666F726D6174001B
:1027B5000D0A273D273A2053686F7720636F6E74A3
:1027C500656E7473206F662042756666657220308B
:1027D50020696E2068657861646563696D616C2048
:1027E500666F726D6174000D0A272563273A2053C1
:1027F5007761702074686520636F6E74656E74739D
:10280500206F6620427566666572203020616E64B1
:10281500204275666665722031000D0A2740273A09
:1028250020436C656172206275666665727320610E
:102835006E642072657374617274207468652070AB
:10284500726F6772616D000D0A456E746572206363
:1028550068617261637465727320746F206164646A
:1028650020746F20427566666572303A20000D0A45
:1028750042756666657273207365742075702100F4
:0628EA00FFFF00000000EA
:10125C00E582900B18F03099FD900B18E0F599C2CF
:10126C00992210980280FBAA998A8222AA83E5828D
:10127C00900B19F0A3EAF0900B26E4F0A3F0900B7E
:10128C0019E0FAA3E0FBC3740A9A74808BF063F044
:10129C008095F050197485C0E07428C0E07480C04B
:1012AC00E01218F815811581158190FFFF22900B23
:1012BC0026E0FCA3E0FDC3EC9AED64808BF063F0B8
:1012CC008095F04003021379C002C003C004C0052E
:1012DC0012126EAE82D005D004D003D0028E82C022
:1012EC0002C003C004C005C00612125CD006D005B3
:1012FC00D004D003D002BE0D03021379BE0812EC49
:10130C0024FFFFED34FFF8900B26EFF0A3E8F080FC
:10131C009DBE71028003BE510490FFFE228E82C0DE
:10132C0002C003C004C005C00612165FE582D006D9
:10133C00D005D004D003D002601AEC241BF582ED4A
:10134C00340BF583EEF0900B2674012CF0E43DA3E6
:10135C00F00212BA74B7C0E07428C0E07480C0E028
:10136C001218F815811581158190FFFF22900B261C
:10137C00E0FAA3E0FBEA241BF582EB340BF583E4E3
:10138C00F0900B1B75F00002152CAAF0AB83E582D4
:10139C00900B2AF0A3EBF0A3EAF012126EAA829043
:1013AC000B2DEAF08A8212125C900B28E0FAA3E073
:1013BC00FB900B2AE0F508A3E0F509A3E0F50A7F02
:1013CC00007800900B2DE0F9B90D02805DC3EF9A07
:1013DC00E864808BF063F08095F0504EC002C0033F
:1013EC00EF2508FAE83509FBAC0A8A828B838CF06E
:1013FC00E9121839C003C007C00012126EAA82D0BD
:10140C0000D007D003900B2DEAF08A82C002C003F3
:10141C00C007C00012125CD000D007D003D0020F5E
:10142C00BF000108D003D0028099900B2AE0FAA3E8
:10143C00E0FBA3E0FCEF2AFFE83BF88C058F8288E9
:10144C00838DF0E4021839759850758920758DFDDF
:08145C00758BFDD28ED299229E
:1028850053657269616C5F676574496E74656765E8
:102895007228293A204572726F722E204D61785F39
:1028A5004C656E67746820746F6F206C6172676524
:1028B5002E000D0A496E76616C6964206368617249
:1028C50061637465722E20456E746572206F6E6C3F
:0A28D50079206469676974732E00AE
:10146400AA83E582900B30F0A3EAF0900B30E0FA07
:10147400A3E0FB4A700490000022EA24FCFAEB3457
:10148400FFFB900B3BE0FCA3E0FD900B32ECF0A3E0
:10149400EDF0900B2EE4F0A3F0900B32E0FCA3E00F
:1014A400FD4C6025EAB50406EBB50502801B900BE4
:1014B4002EECF0A3EDF08C828D83E0FCA3E0FD9094
:1014C4000B32ECF0A3EDF080D0900B32E0FAA3E005
:1014D4008A82F58322AAF0AB83E582900B34F0A3D1
:1014E400EBF0A3EAF0900B34E0FAA3E0FBA3E0FCFA
:1014F4008A828B83121464AA82AB83EA4B6028909D
:101504000B2EE0FCA3E0FD4C700B8A828B83A3A31B
:10151400E4F0A3F0228A828B83E0FAA3E0FB8C82BE
:081524008D83EAF0A3EBF02235
:06003200E478FFF6D8FDA2
:10152C00AAF0AB83E582900B37F0A3EBF0A3EAF0C3
:10153C007A007B00900B37E0FCA3E0FDA3E0FE8C6F
:10154C00828D838EF0122197FF6039C374B98FF0AE
:10155C0063F08095F04007EF648094B050268C8245
:10156C008D838EF0122197FFBF2D028017BF2B02A7
:10157C0080120CBC00010D900B37ECF0A3EDF0A326
:10158C00EEF080BB900B37ECF0A3EDF0A3EEF08CFB
:10159C00828D838EF0122197FFE4BF2D0104F88811
:1015AC00017003BF2B0E900B3774012CF0E43DA39C
:1015BC00F0A3EEF0900B37E0FCA3E0FDA3E0FE8C73
:1015CC00828D838EF0122197FF6068C3EF64809444
:1015DC00B0406074B98FF063F08095F04055C00155
:1015EC00900B4A740AF0E4A3F08A828B83C004C087
:1015FC0005C006C007C00112185285820B85830CEA
:10160C00D001D007D006D005D004EF3395E0F8EF29
:10161C0024D0FFE834FFF8EF250BFAE8350CFB0C6F
:10162C00BC00010D900B37ECF0A3EDF0A3EEF0D065
:10163C0001808C900B37ECF0A3EDF0A3EEF0E96099
:10164C0009C3E49AFCE49BFD80048A048B058C821C
:03165C008D832259
:100010007906E94400601B7A019028EA787B75A094
:100020000BE493F2A308B8000205A0D9F4DAF27544
:02003000A0FF2F
:10165F00E582900B3AF0900B3AE0FABA300040096D
:10166F00EA24C640047582012275820022AA83E50E
:10167F0082900B3FF0A3EAF0900B3FE0FAA3E0FB60
:10168F00900B41EAF0A3EBF0EA4B7020900B417402
:10169F00012AF0E43BA3F0900B3DE0FAA3E0FB1A24
:1016AF00BAFF011B900B3DEAF0A3EBF0900B41E06A
:1016BF00FAA3E0FB900B3BEAF0A3EBF0900B3DE0BD
:1016CF00FCA3E0FDEC2AFCED3BFDEC24FEFCED342D
:1016DF00FFFD8A828B83ECF0A3EDF08C828D83E487
:1016EF00F0A3F08A828B83A3A3E4F0A3F022AA8352
:1016FF00E582900B43F0A3EAF0900B43E0FAA3E0EE
:10170F00FBC374FB9A74FF9B500490000022900B54
:10171F004374042AF0E43BA3F0900B3BE0FAA3E000
:10172F00FB900B45EAF0A3EBF0900B43E0F513A30E
:10173F00E0F514900B45E0FCA3E0FD8C828D83E077
:10174F00FEA3E0FF8E008F018C028D03E8C39AF891
:10175F00E99BF98C828D83A3A3E0FAA3E0FBE8C396
:10176F009AF8E99BF9C3E89513E99514400D900B8E
:10177F004774042CF0E43DA3F08023900B45EEF06A
:10178F00A3EFF0900B45E0FAA3E0FB8A828B83E096
:10179F00FAA3E0FB4A709C900B47E4F0A3F0900B88
:1017AF0047E0FAA3E0FB4A700302182D900B45E0C7
:1017BF00FAA3E0FB74022AFCE43BFD8C828D83E0EC
:1017CF00FEA3E0FF4E7013900B43E0F8A3E0F98CFB
:1017DF00828D83E8F0A3E9F08044EE2AFEEF3BFF11
:1017EF008A828B83E0FCA3E0FD8E828F83ECF0A3D3
:1017FF00EDF08A828B83EEF0A3EFF074022EFAE401
:10180F003FFB900B43E0FCA3E0FD8A828B83ECF05F
:10181F00A3EDF0900B4774042EF0E43FA3F0900B70
:10182F0047E0FAA3E08A82F5832220F71030F61101
:10183F008883A88220F507F6A88375830022F2809B
:10184F00F7F022AA83AB828BF0900B4AE0A4F8A9A1
:10185F00F08AF0E0A429F98BF0A3E0A429F583889E
:03186F00822222B0
:100038007800E84400600A790075A000E4F309D864
:10004800FC787BE8440B600C790C900000E4F0A38A
:04005800D8FCD9FAFD
:10187200E582900B4CF0900B4CE0FABA6100400903
:10188200EA248540047582012275820022E5829055
:101892000B4DF0900B4DE0FABA41004009EA24A545
:1018A20040047582012275820022C012858112AA2B
:1018B2008212125CD01222AAF0AB83E582900B4F07
:1018C200F0A3EBF0A3EAF0900B4FE0FAA3E0FBA346
:1018D200E0FC900B4EE0FD900B62E4F0A3F0A3F06D
:1018E200900B65EAF0A3EBF0A3ECF0900B68EDF03F
:1018F2009018AC021A11C012858112E51224FBFA6B
:10190200900B62E4F0A3F0A3F0E51224FBF8900B35
:1019120065E6F008A3E6F008A3E6F0900B68EAF0AB
:101922009018AC121A11AA82AB83D01222E58290CF
:101932000B5EF0900B5EE0FA900B54E0C0E0A3E087
:10194200C0E0A3E0C0E0745DC0E07419C0E0900B99
:1019520052E0C0E0A3E0C0E08A8222158115811521
:1019620081900B5CE0FAA3E0FB900B5C74012AF01F
:10197200E43BA3F022E582900B5FF0900B5FE0FA6C
:1019820074302AFA24C6500A74072AFA300603432E
:1019920002208A8202192FE582900B60F0900B6080
:1019A200E0FAC4540FFBF582C002121977D0025339
:1019B200020F8A82021977E582900B61F0900B5731
:1019C200E0FAA3E0FBA3E0FCA3E0FD900B5BE0FEEA
:1019D200900B61E0FF7820EE2EFEED235401F942D8
:1019E20006EA2AFAEB33FBEC33FCED33FDC3EE9F40
:1019F2004007EEC39FFE430201D8DC900B57EAF08A
:101A0200A3EBF0A3ECF0A3EDF0900B5BEEF022AAB7
:101A120083E582900B69F0A3EAF0900B69E0FAA3E8
:101A2200E0FB900B52EAF0A3EBF0900B62E0FAA31A
:101A3200E0FBA3E0FC900B54EAF0A3EBF0A3ECF084
:101A4200900B5CE4F0A3F0900B65E0FAA3E0FBA33B
:101A5200E0FC8A828B838CF0122197FD900B6574D7
:101A6200012AF0E43BA3F0A3ECF0ED70030221386D
:101A7200BD25028003022130C207C208C209C20A80
:101A8200C20BC20CC20DC20E900B6BE4F0900B6C39
:101A9200F0900B6D74FFF0900B65E0FAA3E0FBA3EE
:101AA200E0FC8A828B838CF0122197FEA3AA82AB80
:101AB20083900B65EAF0A3EBF0A3ECF0900B6FEED2
:101AC200F0BE25088E8212192F021A498E07BF30E6
:101AD2000040498E07EF24C64042900B6DE0FFBFE5
:101AE200FF29C002C003C004900B6CE0FA75F00A33
:101AF200A4FAEE24D0900B6C2AF0900B6CE0FAD092
:101B020004D003D002709BD2088097EF75F00AA42C
:101B1200FFEE24D0900B6D2FF0021AA4900B6FE011
:101B2200FEBE2E08900B6DE4F0021AA48E82C00253
:101B3200C003C004C006121872E58224FF9206D0C8
:101B420006D004D003D002300607900B6F74DF5E1C
:101B5200F0900B6FE0FEBE20028055BE2B02804B40
:101B6200BE2D028041BE4202804BBE43028050BE67
:101B72004403021DA5BE4603021DC7BE4903021D42
:101B8200A5BE4C028034BE4F03021DAFBE500302FD
:101B92001D07BE53028042BE5503021DB7BE580345
:101BA200021DBF021DCBD207021AA4D209021AA437
:101BB200D20A021AA4D20C021AA4D20D021AA490BA
:101BC2000B68E0FA24FEF8900B68F08602088603A0
:101BD200188A8212192F021DD7900B68E0FA24FD91
:101BE200F8900B68F086020886030886041818909D
:101BF2000B57EAF0A3EBF0A3ECF0900B57E0FAA33B
:101C0200E0FBA3E0FC8A828B838CF0122144AA823F
:101C1200AB83900B6DE0FBBBFF05900B6DEAF020F0
:101C22000738900B6CE0FBC3EA9B502E900B6CEBD9
:101C3200C39AF0900B6CE0FB8B041B900B6CEBF0E7
:101C4200BC00028010758220C002C00312192FD07E
:101C520003D00280E3900B6CEBF0900B6DE0FDC0C3
:101C620002900B57E0FCA3E0FFA3E0FA8C828F8383
:101C72008AF0122197D00260538D041DC374808CA8
:101C8200F063F08095F05044C002900B57E0F50DE0
:101C9200A3E0F50EA3E0F50F7401250DFBE4350E6C
:101CA200FAAC0F900B57EBF0A3EAF0A3ECF0850D22
:101CB20082850E83850FF0122197FAF582C002C049
:101CC2000512192FD005D002D002809320070302FB
:101CD2001DD7900B6CE0FBC3EA9B4003021DD7901B
:101CE2000B6CEBC39AF0900B6CE0FA8A031A900B20
:101CF2006CEAF0BB0003021DD2758220C0021219E9
:101D02002FD00280E6900B68E0FB24FDF8900B6870
:101D1200F086030886040886071818900B57EBF024
:101D2200A3ECF0A3EFF0900B59E0FB247F50089056
:101D32000B6F7443F08020EB249F5008900B6F745C
:101D420050F08013EB24BF5008900B6F7449F08061
:101D520006900B6F7458F0900B6FE0FBF582C00396
:101D620012192FD00375823AC00312192FD00375AE
:101D72008230C00312192FD003758278C003121962
:101D82002FD003BB4902800FBB5002800A900B5830
:101D9200E0FBF582121999900B57E0FBF5821219BC
:101DA200998032D20B900B6B740AF08028900B6BE7
:101DB2007408F08020900B6B740AF08018900B6B03
:101DC2007410F08010D20E800C8E8212192F8005B2
:101DD200900B6CEAF0300E6B900B68E0FA24FCF882
:101DE200900B68F0860208860308860408860618A7
:101DF2001818900B57EAF0A3EBF0A3ECF0A3EEF067
:101E0200900B5774DFF0A37428F0A37480F0900B4A
:101E120057E0FBA3E0FCA3E0FD74012BFEE43CFFD2
:101E22008D02900B57EEF0A3EFF0A3EAF08B828CB9
:101E3200838DF0122197FA7003021A498A821219CD
:101E42002F80CB900B6BE0FABA0003021A49900B79
:101E5200767475F0A3740BF0300C4C900B68E0FABA
:101E620014F8900B68F08602EA3395E0FBFCFE90D2
:101E72000B57EAF0A3EBF0A3ECF0A3EEF0300B0368
:101E8200021F1F900B57E0FAA3E0FBA3E0FCA3E0C4
:101E9200FE7B007C007E00900B57EAF0A3EBF0A3E0
:101EA200ECF0A3EEF08076300D2A900B68E0FA2475
:101EB200FCF8900B68F08602088603088604088600
:101EC20006181818900B57EAF0A3EBF0A3ECF0A356
:101ED200EEF08049900B68E0FA24FEF8900B68F06F
:101EE200860208860318EB3395E0FCFE900B57EA56
:101EF200F0A3EBF0A3ECF0A3EEF0200B20900B5735
:101F0200E0FAA3E0FBA3E0FCA3E0FE7C007E0090ED
:101F12000B57EAF0A3EBF0A3ECF0A3EEF0300B3E8C
:101F2200900B57E0FAA3E0FBA3E0FCA3E0FE30E74E
:101F32002B900B57E0FAA3E0FBA3E0FCA3E0FEC367
:101F4200E49AFAE49BFBE49CFCE49EFE900B57EAC5
:101F5200F0A3EBF0A3ECF0A3EEF08002C20BD20FE1
:101F6200900B6BE0FC75107575110B7D00900B5B8F
:101F7200E4F08C82C004C0051219B9D005D0042047
:101F82000F32C004900B5BE0FFC4FF851082851105
:101F920083E0FA4207851082851183EFF0151074F1
:101FA200FFB510021511900B76E510F0A3E511F0C4
:101FB200D004800C900B5BE0FF851082851183F0CA
:101FC2000D900B6EEDF0B20F900B57E0FFA3E0FA0D
:101FD200A3E0FEA3E0FBEF4A4E4B7091900B76E537
:101FE20010F0A3E511F0900B6EEDF0900B6CE0FA9F
:101FF2007006900B6C7401F02008272007247401EE
:102002002DFA900B6CE0FBC3EA9B5011758220C045
:1020120002C00312192FD003D0021B80EA900B6C6E
:10202200EBF0300B1275822D12192F900B6CE0FA27
:1020320014900B6CF0802F900B6EE0FA6028300940
:102042001275822B12192F900B6CE0FA14900B6C04
:10205200F08013300A1075822012192F900B6CE059
:10206200FA14900B6CF020072F900B6EE0FA900B95
:102072006CE0FB8B041B900B6CEBF0C3EA9C5036BC
:102082003008047C3080027C208C82C002C00312A3
:10209200192FD003D00280DB900B6CE0FA900B6E0C
:1020A200E0FCC39A5009900B6CEAC39CF0800C9040
:1020B2000B6CE4F08005900B6CEBF0900B76E0FA81
:1020C200A3E0FB900B6EE0FC8C061CEE6040B20FAE
:1020D200200F150ABA00010B8A828B83E0FEC454DA
:1020E2000FFE900B5BF0800E8A828B83E0FE53061C
:1020F2000F900B5BEEF0900B5BE0FEF582C002C02E
:1021020003C004121977D004D003D00280BA20078A
:1021120003021A49900B6CE0FA8A031AEB7003026D
:102122001A49758220C00212192FD00280EB8D82CB
:1021320012192F021A49900B5CE0FAA3E08A82F589
:022142008322F6
:0B28DF003C4E4F20464C4F41543E0041
:10214400AAF0AB83E582900B78F0A3EBF0A3EAF05E
:102154007A007B00900B78E0FCA3E0FDA3E0FE8C0A
:10216400828D838EF0122197FFA3AC82AD83900BF6
:1021740078ECF0A3EDF0A3EEF0EF60070ABA00DF0D
:102184000B80DC900B78ECF0A3EDF0A3EEF08A82E8
:032194008B832218
:0D00030075813D12086AE58260030208471E
:1021970020F71430F6148883A88220F507E6A88371
:0C21A70075830022E280F7E49322E0221E
:00000001FF
