:03000000020003F8
:10005C0002005F1202F780FE438E0C90000022AA71
:10006C00F0AB83E582900FA7F0A3EBF0A3EAF0903E
:10007C000FA5E0FAA3E0FB900FA7E0FCA3E0FDA323
:10008C00E0FE8C828D838EF012116EFFA312116E26
:10009C00F8BFFF05B8FF02801CC374C89F7480882A
:1000AC00F063F08095F0400DEF9404E86480948048
:1000BC0040030201E1C004C005C006C002C003C079
:1000CC0004C005C00674C8C0E0E4C0E07404C0E01D
:1000DC00E4C0E0C002C00374A7C0E07411C0E074B7
:1000EC0080C0E01208CFE58124F7F581D006D00559
:1000FC00D004D003D002900FA7E0F508A3E0F509D7
:10010C00A3E0F50A900003C002C003C005C00612AC
:10011C00035EA982AC83D006D005D003D00285083B
:10012C0082850983850AF0E912084AA3EC12084A71
:10013C00C3E99404EC64809480E433D006D005D0F9
:10014C00046033C002C003C004C005C0067404C000
:10015C00E0E4C0E074D8C0E07411C0E07480C0E08A
:10016C001208CFE58124FBF581D006D005D004D050
:10017C0003D00202008EC002C00385088285098369
:10018C00850AF012116EF9A312116EFAC374C89994
:10019C0074808AF063F08095F0D003D002400302A3
:1001AC00008EC002C003C004C005C00674C8C0E005
:1001BC00E4C0E074FFC0E07411C0E07480C0E012D1
:1001CC0008CFE58124FBF581D006D005D004D003FF
:1001DC00D00202008E900FA2E0F508A3E0F509A36F
:1001EC00E0F50A8F828883C002C003C004C005C03A
:1001FC000612070EAF82A883D006D005D004D00318
:10020C00D0027900850882850983850AF0EF1208EF
:10021C004AA3E812084AA3E912084ABF0023B8000F
:10022C0020B9001DC004C005C0067423C0E07412C0
:10023C00C0E07480C0E01208CFE58124FAF581801B
:10024C00FE850882850983850AF012116EFFA312C0
:10025C00116EF8A312116EF98C828D838EF012112F
:10026C006EFCA312116EFDC007C000C001C004C01B
:10027C0005C002C0037447C0E07412C0E07480C0B3
:10028C00E01208CFE58124F6F58122900FA274B01C
:10029C00F0A3740FF0A37400F0900FA57401F0E4B8
:1002AC00A3F0900FAA75F00012006B900FA274B31C
:1002BC00F0A3740FF0A37400F0900FA57402F0E497
:1002CC00A3F0900FAC75F00012006B900FA274B6F7
:1002DC00F0A3740FF0A37400F0900FA57403F0E476
:1002EC00A3F0900FAE75F00002006B900FD574A0C8
:1002FC00F0A3740FF090000012068D12052C9005DF
:10030C007812070EAA82AB83900FA0EAF0A3EBF051
:10031C00BA001ABB00177478C0E07412C0E0748085
:10032C00C0E01208CF15811581158180E912029762
:06033C00C295B29580FCA1
:1011A7000D0A456E74657220612073697A65206641
:1011B7006F72206275666665725F2564206265746A
:1011C7007765656E20256420616E642025643A206A
:1011D700000D0A4572726F722E2056616C7565207C
:1011E7006D7573742062652067726561746572201E
:1011F7007468616E202564000D0A4572726F722E45
:101207002056616C7565206D757374206265206C5E
:10121700657373207468616E202564004275666685
:101227006572206F662073697A6520256420616C7A
:101237006C6F636174696F6E206661696C656400C9
:101247000D0A427566666572202564206F662073F5
:10125700697A653A20256420616C6C6F63617465F7
:101267006420617420616464726573733A20257821
:10127700004D616C6C6F63206661696C65642E0D4F
:021287000A005B
:10034200E582900FB9F03099FD900FB9E0F599C2AE
:10035200992210980280FBAA998A8222AA83E582B6
:10036200900FBAF0A3EAF0900FC7E4F0A3F0900F59
:10037200BAE0FAA3E0FBC3740A9A74808BF063F0CC
:100382008095F050197489C0E07412C0E07480C086
:10039200E01208CF15811581158190FFFF22900F81
:1003A200C7E0FCA3E0FDC3EC9AED64808BF063F040
:1003B2008095F04003020452C002C003C004C0058D
:1003C200120354AE82D005D004D003D0028E82C074
:1003D20002C003C004C005C006120342D006D00505
:1003E200D004D003D002BE0D028065BE0812EC24F8
:1003F200FFFFED34FFF8900FC7EFF0A3E8F0809E07
:100402008E82C002C003C004C005C00612053DE5CD
:1004120082D006D005D004D003D002601AEC24BCEE
:10042200F582ED340FF583EEF0900FC774012CF0D6
:10043200E43DA3F00203A074BBC0E07412C0E074F8
:1004420080C0E01208CF15811581158190FFFF222F
:10045200900FC7E0FAA3E0FBEA24BCF582EB340F6D
:10046200F583E4F0900FBC75F00002055AAAF0ABD8
:1004720083E582900FCBF0A3EBF0A3EAF0120354D2
:10048200AA82900FCEEAF08A82120342900FC9E04C
:10049200FAA3E0FB900FCBE0F50BA3E0F50CA3E091
:1004A200F50D7F007800900FCEE0F9B90D02805D66
:1004B200C3EF9AE864808BF063F08095F0504EC0F1
:1004C20002C003EF250BFAE8350CFBAC0D8A828BD8
:1004D200838CF0E912084AC003C007C0001203541B
:1004E200AA82D000D007D003900FCEEAF08A82C051
:1004F20002C003C007C000120342D000D007D003DD
:10050200D0020FBF000108D003D0028099900FCB18
:10051200E0FAA3E0FBA3E0FCEF2AFFE83BF88C053E
:100522008F8288838DF0E402084A7598507589207D
:0B053200758DFD758BFDD28ED29922D5
:1012890053657269616C5F676574496E74656765FA
:101299007228293A204572726F722E204D61785F4B
:1012A9004C656E67746820746F6F206C6172676536
:1012B9002E000D0A496E76616C696420636861725B
:1012C90061637465722E20456E746572206F6E6C51
:0A12D90079206469676974732E00C0
:06003200E478FFF6D8FDA2
:10053D00E582900FCFF0900FCFE0FABA300040096E
:10054D00EA24C640047582012275820022AAF0AB0E
:10055D0083E582900FD0F0A3EBF0A3EAF07A007B55
:10056D0000900FD0E0FCA3E0FDA3E0FE8C828D8314
:10057D008EF012116EFF6039C374B98FF063F08085
:10058D0095F04007EF648094B050268C828D838E59
:10059D00F012116EFFBF2D028017BF2B0280120CBF
:1005AD00BC00010D900FD0ECF0A3EDF0A3EEF080A8
:1005BD00BB900FD0ECF0A3EDF0A3EEF08C828D8309
:1005CD008EF012116EFFE4BF2D0104F88801700347
:1005DD00BF2B0E900FD074012CF0E43DA3F0A3EED1
:1005ED00F0900FD0E0FCA3E0FDA3E0FE8C828D83A4
:1005FD008EF012116EFF6068C3EF648094B040609E
:10060D0074B98FF063F08095F04055C001900FE202
:10061D00740AF0E4A3F08A828B83C004C005C0067F
:10062D00C007C00112086385820E85830FD001D0EB
:10063D0007D006D005D004EF3395E0F8EF24D0FFB6
:10064D00E834FFF8EF250EFAE8350FFB0CBC00017E
:10065D000D900FD0ECF0A3EDF0A3EEF0D001808C57
:10066D00900FD0ECF0A3EDF0A3EEF0E96009C3E438
:10067D009AFCE49BFD80048A048B058C828D832279
:100010007900E94400601B7A009012EE781275A016
:1000200010E493F2A308B8000205A0D9F4DAF2753F
:02003000A0FF2F
:10068D00AA83E582900FD7F0A3EAF0900FD7E0FA96
:10069D00A3E0FB900FD9EAF0A3EBF0EA4B702090AA
:1006AD000FD974012AF0E43BA3F0900FD5E0FAA323
:1006BD00E0FB1ABAFF011B900FD5EAF0A3EBF09007
:1006CD000FD9E0FAA3E0FB900FD3EAF0A3EBF09083
:1006DD000FD5E0FCA3E0FDEC2AFCED3BFDEC24FE88
:1006ED00FCED34FFFD8A828B83ECF0A3EDF08C8260
:1006FD008D83E4F0A3F08A828B83A3A3E4F0A3F0AF
:10070D0022AA83E582900FDBF0A3EAF0900FDBE0E5
:10071D00FAA3E0FBC374FB9A74FF9B500490000096
:10072D0022900FDB74042AF0E43BA3F0900FD3E08A
:10073D00FAA3E0FB900FDDEAF0A3EBF0900FDBE006
:10074D00F516A3E0F517900FDDE0FCA3E0FD8C821C
:10075D008D83E0FEA3E0FF8E008F018C028D03E8F8
:10076D00C39AF8E99BF98C828D83A3A3E0FAA3E0E9
:10077D00FBE8C39AF8E99BF9C3E89516E99517408C
:10078D000D900FDF74042CF0E43DA3F08023900F47
:10079D00DDEEF0A3EFF0900FDDE0FAA3E0FB8A822F
:1007AD008B83E0FAA3E0FB4A709C900FDFE4F0A38B
:1007BD00F0900FDFE0FAA3E0FB4A700302083E90D1
:1007CD000FDDE0FAA3E0FB74022AFCE43BFD8C8212
:1007DD008D83E0FEA3E0FF4E7013900FDBE0F8A3D6
:1007ED00E0F98C828D83E8F0A3E9F08044EE2AFED7
:1007FD00EF3BFF8A828B83E0FCA3E0FD8E828F832B
:10080D00ECF0A3EDF08A828B83EEF0A3EFF074028F
:10081D002EFAE43FFB900FDBE0FCA3E0FD8A828B18
:10082D0083ECF0A3EDF0900FDF74042EF0E43FA302
:10083D00F0900FDFE0FAA3E08A82F5832220F71013
:10084D0030F6118883A88220F507F6A883758300FA
:10085D0022F280F7F022AA83AB828BF0900FE2E0B8
:10086D00A4F8A9F08AF0E0A429F98BF0A3E0A4295B
:06087D00F58388822222AF
:100038007800E84400600A790075A000E4F309D864
:10004800FC7812E84410600C7911900000E4F0A3E9
:04005800D8FCD9FAFD
:10088300C015858115AA82120342D01522AAF0ABA6
:1008930083E582900FE5F0A3EBF0A3EAF0900FE578
:1008A300E0FAA3E0FBA3E0FC900FE4E0FD900FF877
:1008B300E4F0A3F0A3F0900FFBEAF0A3EBF0A3ECBA
:1008C300F0900FFEEDF09008830209E8C0158581D2
:1008D30015E51524FBFA900FF8E4F0A3F0A3F0E577
:1008E3001524FBF8900FFBE6F008A3E6F008A3E657
:1008F300F0900FFEEAF09008831209E8AA82AB8316
:10090300D01522E582900FF4F0900FF4E0FA900FE7
:10091300EAE0C0E0A3E0C0E0A3E0C0E07434C0E0DC
:100923007409C0E0900FE8E0C0E0A3E0C0E08A8271
:1009330022158115811581900FF2E0FAA3E0FB9057
:100943000FF274012AF0E43BA3F022E582900FF545
:10095300F0900FF5E0FA74302AFA24C6500A7407AF
:100963002AFA3000034302208A82020906E58290B4
:100973000FF6F0900FF6E0FAC4540FFBF582C002B5
:1009830012094ED00253020F8A8202094EE5829069
:100993000FF7F0900FEDE0FAA3E0FBA3E0FCA3E078
:1009A300FD900FF1E0FE900FF7E0FF7820EE2EFEB2
:1009B300ED235401F94206EA2AFAEB33FBEC33FC4C
:1009C300ED33FDC3EE9F4007EEC39FFE430201D804
:1009D300DC900FEDEAF0A3EBF0A3ECF0A3EDF090C5
:1009E3000FF1EEF022AA83E582900FFFF0A3EAF065
:1009F300900FFFE0FAA3E0FB900FE8EAF0A3EBF01F
:100A0300900FF8E0FAA3E0FBA3E0FC900FEAEAF012
:100A1300A3EBF0A3ECF0900FF2E4F0A3F0900FFB44
:100A2300E0FAA3E0FBA3E0FC8A828B838CF0121133
:100A33006EFD900FFB74012AF0E43BA3F0A3ECF0EE
:100A4300ED700302110FBD25028003021107C201DD
:100A5300C202C203C204C205C206C207C208901082
:100A630001E4F0901002F090100374FFF0900FFB7C
:100A7300E0FAA3E0FBA3E0FC8A828B838CF01211E3
:100A83006EFEA3AA82AB83900FFBEAF0A3EBF0A365
:100A9300ECF0901005EEF0BE25088E8212090602D6
:100AA3000A208E07BF300040498E07EF24C640421C
:100AB300901003E0FFBFFF29C002C003C0049010E1
:100AC30002E0FA75F00AA4FAEE24D09010022AF09C
:100AD300901002E0FAD004D003D002709BD20280BF
:100AE30097EF75F00AA4FFEE24D09010032FF002C5
:100AF3000A7B901005E0FEBE2E08901003E4F0027E
:100B03000A7B8E82C002C003C004C00612118AE5AC
:100B13008224FF9200D006D004D003D00230000715
:100B230090100574DF5EF0901005E0FEBE20028099
:100B330055BE2B02804BBE2D028041BE4202804B2C
:100B4300BE43028050BE4403020D7CBE4603020D29
:100B53009EBE4903020D7CBE4C028034BE4F03028D
:100B63000D86BE5003020CDEBE53028042BE550307
:100B7300020D8EBE5803020D96020DA2D201020A87
:100B83007BD203020A7BD204020A7BD206020A7BCF
:100B9300D207020A7B900FFEE0FA24FEF8900FFEC4
:100BA300F08602088603188A82120906020DAE90A7
:100BB3000FFEE0FA24FDF8900FFEF086020886038C
:100BC3000886041818900FEDEAF0A3EBF0A3ECF0FD
:100BD300900FEDE0FAA3E0FBA3E0FC8A828B838C09
:100BE300F012111BAA82AB83901003E0FBBBFF053D
:100BF300901003EAF0200138901002E0FBC3EA9B57
:100C0300502E901002EBC39AF0901002E0FB8B047D
:100C13001B901002EBF0BC00028010758220C00212
:100C2300C003120906D003D00280E3901002EBF058
:100C3300901003E0FDC002900FEDE0FCA3E0FFA3E2
:100C4300E0FA8C828F838AF012116ED00260538D8A
:100C5300041DC374808CF063F08095F05044C0028F
:100C6300900FEDE0F510A3E0F511A3E0F512740188
:100C73002510FBE43511FAAC12900FEDEBF0A3EA6B
:100C8300F0A3ECF08510828511838512F012116EAA
:100C9300FAF582C002C005120906D005D002D002BF
:100CA3008093200103020DAE901002E0FBC3EA9B88
:100CB3004003020DAE901002EBC39AF0901002E0D5
:100CC300FA8A031A901002EAF0BB0003020DA97519
:100CD3008220C002120906D00280E6900FFEE0FBDC
:100CE30024FDF8900FFEF086030886040886071893
:100CF30018900FEDEBF0A3ECF0A3EFF0900FEFE003
:100D0300FB247F50089010057443F08020EB249F50
:100D130050089010057450F08013EB24BF500890D6
:100D230010057449F080069010057458F090100572
:100D3300E0FBF582C003120906D00375823AC003B3
:100D4300120906D003758230C003120906D0037559
:100D53008278C003120906D003BB4902800FBB503F
:100D630002800A900FEEE0FBF582120970900FEDFE
:100D7300E0FBF5821209708032D205901001740AEB
:100D8300F080289010017408F08020901001740AFC
:100D9300F080189010017410F08010D208800C8E2F
:100DA300821209068005901002EAF030086B900F5A
:100DB300FEE0FA24FCF8900FFEF086020886030892
:100DC3008604088606181818900FEDEAF0A3EBF0D6
:100DD300A3ECF0A3EEF0900FED74E3F0A37412F024
:100DE300A37480F0900FEDE0FBA3E0FCA3E0FD749F
:100DF300012BFEE43CFF8D02900FEDEEF0A3EFF02C
:100E0300A3EAF08B828C838DF012116EFA700302C9
:100E13000A208A8212090680CB901001E0FABA00F8
:100E230003020A2090100C740BF0A37410F0300628
:100E33004C900FFEE0FA14F8900FFEF08602EA33AE
:100E430095E0FBFCFE900FEDEAF0A3EBF0A3ECF0D2
:100E5300A3EEF0300503020EF6900FEDE0FAA3E0E7
:100E6300FBA3E0FCA3E0FE7B007C007E00900FED83
:100E7300EAF0A3EBF0A3ECF0A3EEF0807630072AC0
:100E8300900FFEE0FA24FCF8900FFEF0860208862D
:100E930003088604088606181818900FEDEAF0A3D5
:100EA300EBF0A3ECF0A3EEF08049900FFEE0FA2400
:100EB300FEF8900FFEF0860208860318EB3395E0E8
:100EC300FCFE900FEDEAF0A3EBF0A3ECF0A3EEF041
:100ED300200520900FEDE0FAA3E0FBA3E0FCA3E0E4
:100EE300FE7C007E00900FEDEAF0A3EBF0A3ECF0A4
:100EF300A3EEF030053E900FEDE0FAA3E0FBA3E094
:100F0300FCA3E0FE30E72B900FEDE0FAA3E0FBA398
:100F1300E0FCA3E0FEC3E49AFAE49BFBE49CFCE45C
:100F23009EFE900FEDEAF0A3EBF0A3ECF0A3EEF03E
:100F33008002C205D209901001E0FC75130B7514F1
:100F4300107D00900FF1E4F08C82C004C0051209FB
:100F530090D005D004200932C004900FF1E0FFC403
:100F6300FF851382851483E0FA4207851382851473
:100F730083EFF0151374FFB51302151490100CE5ED
:100F830013F0A3E514F0D004800C900FF1E0FF857B
:100F93001382851483F00D901004EDF0B209900FC5
:100FA300EDE0FFA3E0FAA3E0FEA3E0FBEF4A4E4B24
:100FB300709190100CE513F0A3E514F0901004ED7C
:100FC300F0901002E0FA70069010027401F0200213
:100FD3002720012474012DFA901002E0FBC3EA9B41
:100FE3005011758220C002C003120906D003D0023B
:100FF3001B80EA901002EBF030051275822D120966
:1010030006901002E0FA14901002F0802F90100462
:10101300E0FA602830031275822B12090690100241
:10102300E0FA14901002F08013300410758220123D
:101033000906901002E0FA14901002F020012F909C
:101043001004E0FA901002E0FB8B041B901002EBFB
:10105300F0C3EA9C50363002047C3080027C208C42
:1010630082C002C003120906D003D00280DB9010B5
:1010730002E0FA901004E0FCC39A5009901002EACF
:10108300C39CF0800C901002E4F08005901002EBFA
:10109300F090100CE0FAA3E0FB901004E0FC8C0647
:1010A3001CEE6040B2092009150ABA00010B8A82BE
:1010B3008B83E0FEC4540FFE900FF1F0800E8A8202
:1010C3008B83E0FE53060F900FF1EEF0900FF1E0EB
:1010D300FEF582C002C003C00412094ED004D0033F
:1010E300D00280BA200103020A20901002E0FA8A9B
:1010F300031AEB7003020A20758220C0021209064C
:10110300D00280EB8D82120906020A20900FF2E0D2
:08111300FAA3E08A82F58322B1
:0B12E3003C4E4F20464C4F41543E0053
:10111B00AAF0AB83E58290100EF0A3EBF0A3EAF0FC
:10112B007A007B0090100EE0FCA3E0FDA3E0FE8CA8
:10113B00828D838EF012116EFFA3AC82AD83901063
:10114B000EECF0A3EDF0A3EEF0EF60070ABA00DFB0
:10115B000B80DC90100EECF0A3EDF0A3EEF08A8286
:03116B008B832251
:0D000300758121120064E582600302005F38
:10116E0020F71430F6148883A88220F507E6A883AA
:10117E0075830022E280F7E49322E022E58290104C
:10118E0011F0901011E0FABA61004009EA2485408E
:09119E0004758201227582002211
:00000001FF
