:10006100AAF0AB83E582900000F0A3EBF0A3EAF0E5
:10007100745AC0E07421C0E07480C0E012189F156A
:100081008115811581745FC0E07421C0E07480C066
:10009100E012189F158115811581900000E0FAA3E7
:1000A100E0FBA3E0FC74082AFDE43BFE8C078D8293
:1000B1008E838FF012213EFDA312213EFEC002C0AD
:1000C10003C004C005C0067482C0E07421C0E0749E
:1000D10080C0E012189FE58124FBF581D004D00394
:1000E100D0028A828B838CF012213EFDA312213E25
:1000F100FE7F00C002C003C004C005C006C0077473
:1001010098C0E07421C0E07480C0E012189FE581BE
:1001110024FAF581D004D003D00274022AFDE43B15
:10012100FE8C078D828E838FF012213EFDA312215A
:100131003EFE7F00C002C003C004C005C006C00768
:1001410074AEC0E07421C0E07480C0E012189FE575
:100151008124FAF581D004D003D00274062AFDE48B
:100161003BFE8C078D828E838FF012213EF8A31205
:10017100213EF9C002C003C004C005C006C007C0CB
:1001810000C00174C4C0E07421C0E07480C0E012FA
:10019100189FE58124FBF581D007D006D005D00456
:1001A100D003D00274042AFAE43BFB8A828B838C4D
:1001B100F012213EF8A312213EF9C002C003C0048F
:1001C100C005C006C007C000C00174DAC0E07421D8
:1001D100C0E07480C0E012189FE58124FBF581D056
:1001E10007D006D005D004D003D0028D828E838F34
:1001F100F012213EFDA312213EFE8A828B838CF0F8
:1002010012213EFAA312213EFBEDC39AFDEE9BFEA5
:10021100C005C00674F0C0E07421C0E07480C0E085
:1002210012189FE58124FBF58122AAF0AB83E582B8
:10023100900003F0A3EBF0A3EAF0900006E4F0A332
:10024100F07406C0E07422C0E07480C0E012189F10
:10025100158115811581900003E0FAA3E0FBA3E06D
:10026100FC8A828B838CF012213EFDA312213EFE7B
:1002710074042AFFE43BF88C0174022AFAE43BFB84
:10028100C007C000C0018A828B838CF012213EF529
:1002910022A312213EF5238D018E07C3E99522EF9A
:1002A1009523D001D000D007400302045AC002C0F8
:1002B10003C0048D028E037C00C002C003C004C0D1
:1002C10005C006C007C000C001C002C003C004745D
:1002D10014C0E07422C0E07480C0E012189FE58170
:1002E10024FAF581D001D000D007D006D005D00482
:1002F100D003D002D004D003D0028D228E238D24CE
:100301008E25900006E0F526A3E0F527E4F528F513
:1003110029C3E5289410E5296480948040030204F0
:1003210011C002C003C0048F82888389F012213E6C
:10033100F52AA312213EF52BAC26AA27C3EC952A58
:10034100EA952BD004D003D002400302040630000A
:1003510057C002C003C004E5282524F582E52935EC
:1003610025F583E0FA7B00C002C003C004C005C0CC
:1003710006C007C000C001C002C0037419C0E07408
:1003810022C0E07480C0E012189FE58124FBF58152
:10039100D001D000D007D006D005D004D003D002C0
:1003A100D004D003D0028055C002C003C004E528A8
:1003B1002522F582E5293523F583E0FA7B00C00289
:1003C100C003C004C005C006C007C000C001C00210
:1003D100C003741DC0E07422C0E07480C0E0121834
:1003E1009FE58124FBF581D001D000D007D006D054
:1003F10005D004D003D002D004D003D0020526E4F6
:10040100B5260205270528E4B528020529020312AD
:10041100900006E526F0A3E527F0C002C003C00462
:10042100C005C006C007C000C0017421C0E074222D
:10043100C0E07480C0E012189F158115811581D02C
:1004410001D000D007D006D005D004D003D002746B
:10045100102DFDE43EFE0202817421C0E07422C031
:10046100E07480C0E012189F15811581158122AAC0
:10047100F0AB83E582900008F0A3EBF0A3EAF090E3
:100481000008E0FAA3E0FBA3E0FC8A828B838CF0F6
:10049100120061900008E0FAA3E0FBA3E0FCA201D6
:1004A10092008A828B838CF002022BAAF0AB83E547
:1004B1008290000BF0A3EBF0A3EAF090000BE0FABE
:1004C100A3E0FBA3E0FC74082AFDE43BFE8C078D4E
:1004D100828E838FF012213EFDA312213EFEC002C7
:1004E100C003C004C005C0067424C0E07422C0E08B
:1004F1007480C0E012189FE58124FBF581D004D0FF
:1005010003D00274042AFAE43BFB8A828B838CF0C9
:10051100E41217E0A3E40217E0AAF0AB83E58290AE
:100521000011F0A3EBF0A3EAF0900011E0F52CA389
:10053100E0F52DA3E0F52E7406252CFDE4352DFE06
:10054100AF2E8D828E838FF012213EF532A31221C0
:100551003EF53390000EE0FFA3E0F8A3E0F9740646
:100561002FFAE438FB89048A828B838CF012213EB6
:10057100F534A312213EF535E532B53407E533B53F
:10058100350280167438C0E07422C0E07480C0E087
:1005910012189F15811581158122E4F52FF530C3BD
:1005A100E52F9532E530953350548F82888389F059
:1005B10012213EFCA312213EFAE52F2CFCE5303A34
:1005C100FA8C828A83E0F531852C82852D83852EF4
:1005D100F012213EFBA312213EFDE52F2BFBE5305E
:1005E1003DFD8B828D83E0FE8C828A83F08B828D30
:1005F10083E531F0052FE4B52FA5053080A1740402
:100601002FF536E438F53789388536828537838585
:1006110038F012213EF52FA312213EF53074042546
:100621002CFAE4352DFBAC2E8A828B838CF01221BF
:100631003EFDA312213EFE8536828537838538F043
:10064100ED1217E0A3EE1217E08A828B838CF0E59E
:100651002F1217E0A3E5301217E07402252CFAE4FB
:10066100352DFBAC2E852C82852D83852EF0122114
:100671003EFDA312213EFEE5322DFDE5333EFE8A0D
:10068100828B838CF0ED1217E0A3EE1217E0740257
:100691002FFAE438FB89048F82888389F012213E86
:1006A100FFA312213EF8E5342FFFE53538F88A82A1
:1006B1008B838CF0EF1217E0A3E80217E0AAF0ABEE
:1006C10083E582900018F0A3EBF0A3EAF090001804
:1006D100E0FAA3E0FBA3E0FC900014E0FDA3E0FE40
:1006E1008D828E83C002C003C004C005C0061216ED
:1006F100A4AF82A883D006D005D004D003D0028A4B
:10070100828B838CF0EF1217E0A3E81217E0BF0091
:100711002AB80027C005C006900016E0C0E0A3E09B
:10072100C0E0746AC0E07422C0E07480C0E01218B6
:100731009FE58124F9F581E424FF2274062AF53925
:10074100E43BF53A8C3B853982853A83853BF0ED74
:100751001217E0A3EE1217E074022AFDE43BFE8CAF
:10076100078A828B838CF012213EF53CA312213E35
:10077100F53D853982853A83853BF012213EF8A308
:1007810012213EF9E8253CF8E9353DF98D828E8349
:100791008FF0E81217E0A3E91217E074042AFDE4D0
:1007A1003BFE8C078D828E838FF0E41217E0A3E469
:1007B1001217E074082AFDE43BFE8C07900016E056
:1007C100F8A3E0F98D828E838FF0E81217E0A3E998
:1007D1001217E0740A2AFAE43BFB8A828B838CF0BD
:1007E10074011217E0A3E41217E0740124FF22AA96
:1007F100F0AB83E58290001BF0A3EBF0A3EAF0904D
:10080100001BE0FAA3E0FBA3E0FC8A828B838CF05F
:1008110012213EFDA312213EFE7F008D828E838F29
:10082100F0C002C003C004121480D004D003D0026F
:10083100740A2AFAE43BFB8A828B838CF0E4121758
:06084100E0A3E40217E051
:10215A000D0A0D0A002A2A2A2A2A2A2A2A2A2A2A79
:10216A002A2A2A2A2A2A2A2A2A2A2A2A2A2A2A2AC5
:10217A002A2A2A2A2A0D0A00427566666572204EA4
:10218A00756D6265723A20202025640D0A00537429
:10219A0061727420416464726573733A2020202549
:1021AA00700D0A00456E6420416464726573733A67
:1021BA00202020202025700D0A004275666665726F
:1021CA002053697A653A202020202025640D0A00D0
:1021DA00427974657320557365643A202020202063
:1021EA002025640D0A0042797465732052656D6179
:1021FA00696E696E673A2025640D0A00436F6E7432
:10220A00656E74733A0D0A0D0A0025703A2000258E
:10221A00782000256320000D0A0042756666657203
:10222A0020256420436C65617265640D0A00436170
:10223A006E277420737761702062756666657220F6
:10224A00636F6E74656E747320776974682064694D
:10225A0066666572656E742073697A65730D0A0025
:10226A000D0A4572726F722E20427566666572207B
:10227A002564206F662073697A6520256420616C65
:10228A006C6F636174696F6E206661696C65640D59
:02229A000A0038
:03000000020003F8
:05005C00C2020208478A
:100847001211A280FE438E0C90000022D203900B5F
:100857007874FFF0A3F0900B7AE4F0A3F0900B0EFE
:100867007464F0E4A3F0900B0EE0FAA3E0FB1ABA6D
:10087700FF011B900B47740CF0E4A3F08A828B8373
:10088700C002C0031217F9AC82AD83D003D002ECCB
:10089700245EFCED3406FD740A2CF582E43DF583F5
:1008A700E4F0A3F0900B0EEAF0A3EBF0900B0EE050
:1008B700FAA3E0FB4A70AF20030122900B78E0FA1D
:1008C700A3E0FBBAFF05BBFF028021C374409A7403
:1008D700868BF063F08095F04012EA9420EB6480F9
:1008E70094804008EA540F70030209A67440C0E0E0
:1008F7007406C0E07420C0E0E4C0E0749CC0E074FB
:1009070022C0E07480C0E012189FE58124F9F581C8
:1009170090000A12121FAC82AD83900B78ECF0A303
:10092700EDF0C3EC9420ED64809480501F7420C0D8
:10093700E0E4C0E074E8C0E07422C0E07480C0E086
:1009470012189FE58124FBF5810208C2C374409CFD
:1009570074868DF063F08095F050207440C0E07489
:1009670006C0E07411C0E07423C0E07480C0E012D8
:10097700189FE58124FBF5810208C2EC540F700330
:100987000208C2C004C0057437C0E07423C0E07415
:1009970080C0E012189FE58124FBF5810208C29010
:1009A7000B7AE0FCA3E0FD900B47740CF0E4A3F096
:1009B7008C828D83C002C0031217F9AC82AD83D03D
:1009C70003D002EC245EFCED3406FD7E009000149B
:1009D700EAF0A3EBF0900016E4F0A3F08C828D838D
:1009E7008EF01206BE9204A204B39203900B7AE033
:1009F700FAA3E0FB900B7A74012AF0E43BA3F02002
:100A07000362900B7AE0FAA3E0FB900B47740CF0BB
:100A1700E4A3F08A828B831217F9AA82AB83EA24B4
:100A27005EFAEB3406FB7C00900B78E0FDA3E0FE5A
:100A3700900014EDF0A3EEF09000167401F0E4A31B
:100A4700F08A828B838CF01206BE9204A204B392C2
:100A570003900B7AE0FAA3E0FB900B7A74012AF07B
:100A6700E43BA3F020034290066AE0FAA3E0FB7C94
:100A77000090065EE0FDA3E0FE7F00C002C003C059
:100A870004C005C006C007900B78E0C0E0A3E0C033
:100A9700E07467C0E07423C0E07480C0E012189F60
:100AA700E58124F5F5810208BE900B78E0C0E0A34C
:100AB700E0C0E074A1C0E07423C0E07480C0E0121D
:100AC700189FE58124FBF58190065E75F0001207FB
:100AD700F090066A75F0001207F0900B7AE4F0A325
:100AE700F0900B78E4F0A3F00208BE900B1074FFAF
:100AF700F0A3F0900B10E0FAA3E0FBBAFF05BBFFF1
:100B070002801CC374909A74818BF063F08095F017
:100B1700400DEA9414EB648094804003020BB87490
:100B270090C0E07401C0E07414C0E0E4C0E074E079
:100B3700C0E07423C0E07480C0E012189FE58124F0
:100B4700F9F58190000A12121FAA82AB83900B104D
:100B5700EAF0A3EBF0C3EA9414EB64809480501F8F
:100B67007414C0E0E4C0E074E8C0E07422C0E0742C
:100B770080C0E012189FE58124FBF581020AFAC3C1
:100B870074909A74818BF063F08095F04003020AA9
:100B9700FA7490C0E07401C0E07411C0E07423C01F
:100BA700E07480C0E012189FE58124FBF581020AFA
:100BB700FA7A017B00900B47740CF0E4A3F08A8269
:100BC7008B83C002C0031217F9AC82AD83D003D068
:100BD70002EC245EFCED3406FD740A2CF582E43D3C
:100BE700F583E0FEA3E0FF4E602A0ABA00010BC3BB
:100BF70074649A74808BF063F08095F050B7741624
:100C0700C0E07424C0E07480C0E012189F158115FD
:100C1700811581227E00900B10E0FFA3E0F8900081
:100C270014EFF0A3E8F0900016EAF0A3EBF08C8243
:100C37008D838EF0C007C0001206BED000D0079289
:100C470005900B7AE0FAA3E0FB900B7A74012AF087
:100C5700E43BA3F030053F900B7AE0FAA3E0FBEA10
:100C67001475F00CA4245EF582740635F0F583E064
:100C7700FAA3E0FB7C00C002C003C004C007C000A9
:100C87007443C0E07424C0E07480C0E012189FE58C
:100C97008124F8F58122C007C0007474C0E0742471
:100CA700C0E07480C0E012189FE58124FBF58190B5
:100CB7000B7AE0FAA3E0FB1ABAFF011B900B7AEA62
:100CC700F0A3EBF0900B7AE0FAA3E0FB900B4774EC
:100CD7000CF0E4A3F08A828B831217F9AA82AB8304
:100CE700EA245EFAEB3406FB7C008A828B838CF065
:100CF7000207F07499C0E07424C0E07480C0E01269
:100D0700189F15811581158190000A12121FE5821F
:100D17008583F0900B12F0A3E5F0F0900B12E0FA48
:100D2700A3E0FBC374019A74808BF063F08095F0A5
:100D37004046BAFE19BBFF1674C1C0E07424C0E078
:100D47007480C0E012189F1581158115812274CE19
:100D5700C0E07424C0E07480C0E012189F158115AC
:100D670081158190000A12121FE5828583F0900B8E
:100D770012F0A3E5F0F080A3900B47740CF0E4A306
:100D8700F08A828B83C002C0031217F9AC82AD834D
:100D9700D003D002EC245EFEED3406FF740A2EF574
:100DA70082E43FF583E0FEA3E0FF4E604AC004C043
:100DB70005C002C0037405C0E07425C0E07480C09C
:100DC700E012189FE58124FBF581D005D004EC24BF
:100DD7005EFCED3406FD7E008C828D838EF012075B
:100DE700F0900B7AE0FCA3E0FD1CBCFF011D900B0B
:100DF7007AECF0A3EDF022C002C0037419C0E074CE
:100E070025C0E07480C0E012189FE58124FBF581BE
:100E170022E582900B14F0900B14E0FAF582C002E1
:100E2700121606E582D002701A8A82C0021218369C
:100E3700E582D002700D8A82C002121819E582D0AD
:100E470002606090065EE0FBA3E0FC900662E0FDB6
:100E5700A3E0FEED2BFBEE3CFC900660E0FDA3E07B
:100E6700FEC3EB9DEC9E40012290065EE0FBA3E0F3
:100E7700FC900662E0FDA3E0FEED2BFBEE3CFC9050
:100E87000B14E0FF8B828C83F00DBD00010E9006E2
:100E970062EDF0A3EEF0900B7CE02401F0A3E034C8
:100EA70000F022BA3F028003020F447B007C00C39C
:100EB700EB9464EC648094805051900B47740CF071
:100EC700E4A3F08B828C83C003C0041217F9AD82B0
:100ED700AE83D004D003ED245EFDEE3406FE740A23
:100EE7002DF582E43EF583E0FFA3E0F84F60157F20
:100EF70000C2018D828E838FF0C003C0041204707C
:100F0700D004D0030BBB00A70C80A490065E75F03D
:100F1700001204AC900B7CE0C0E0A3E0C0E07431A9
:100F2700C0E07425C0E07480C0E012189FE58124FA
:100F3700FBF581900B7CE4F0A3F002118CBA2B0631
:100F4700120AF202118CBA2D06120CFA02118CBA8F
:100F57003D2DD20190065E75F000120470900B7C57
:100F6700E0C0E0A3E0C0E07431C0E07425C0E074E5
:100F770080C0E012189FE58124FBF58102118CBA2D
:100F87002550900674E0FBA3E0FC4B602F90000E09
:100F9700746AF0A37406F0A37400F090065E75F00F
:100FA7000012051A7461C0E07425C0E07480C0E0C7
:100FB70012189F15811581158102118C7491C0E05B
:100FC7007425C0E07480C0E012189F158115811543
:100FD7008122BA4002D202227A007B00C3EA9464DB
:100FE700EB648094805045900B47740CF0E4A3F0B9
:100FF7008A828B83C002C0031217F9AC82AD83D0FB
:1010070003D002EC245EFCED3406FD7E008C828D5D
:10101700838EF0C002C0031207F0D003D002900BFA
:101027007AE4F0A3F00ABA00B30B80B02274C4C00C
:10103700E07425C0E07480C0E012189F1581158107
:10104700158174DBC0E07425C0E07480C0E012181D
:101057009F15811581158174C4C0E07425C0E074A3
:1010670080C0E012189F15811581158174F2C0E0C8
:101077007425C0E07480C0E012189F158115811592
:10108700817409C0E07426C0E07480C0E012189F24
:101097001581158115817418C0E07426C0E074802D
:1010A700C0E012189F1581158115817459C0E0742D
:1010B70026C0E07480C0E012189F15811581158144
:1010C700745EC0E07426C0E07480C0E012189F15FB
:1010D70081158115817499C0E07426C0E07480C0C1
:1010E700E012189F15811581158174DFC0E0742601
:1010F700C0E07480C0E012189F15811581158174B6
:10110700FAC0E07426C0E07480C0E012189F158111
:1011170015811581741BC0E07427C0E07480C0E09E
:1011270012189F1581158115817459C0E07427C065
:10113700E07480C0E012189F158115811581742510
:10114700C0E0E4C0E07490C0E07427C0E07480C0E1
:10115700E012189FE58124FBF58174C3C0E0742772
:10116700C0E07480C0E012189F1581158115817445
:1011770059C0E07426C0E07480C0E012189F158142
:10118700158115812274F0C0E07427C0E07480C017
:10119700E012189F15811581158122C202900B3A22
:1011A7007440F0A37406F090001E1216231213FA6F
:1011B7001210341208537417C0E07428C0E074800A
:1011C700C0E012189F15811581158112118CC295E7
:1011D700B295121215AA82BA0D0A75820AC00212B6
:1011E7001203D0028A82C002121203D0028A82122C
:0C11F7000E1810020280D9120FDF80B425
:10229C000D0A456E74657220612073697A6520663B
:1022AC006F7220746865206275666665727320743F
:1022BC006861742069732061206D756C7469706C31
:1022CC0065206F66203136206265747765656E20F7
:1022DC00256420616E642025643A20000D0A457245
:1022EC00726F722E2056616C7565206D757374203B
:1022FC0062652067726561746572207468616E2016
:10230C0025640D0A000D0A4572726F722E205661FB
:10231C006C7565206D757374206265206C657373C4
:10232C00207468616E2025640D0A000D0A457272D6
:10233C006F722E204275666665722053697A65202D
:10234C006D7573742062652061206D756C74697095
:10235C006C65206F662031360D0A000D0A427566D9
:10236C0066657273206F662073697A653A202564FE
:10237C0020616C6C6F6361746564206174206164AE
:10238C00647265737365733A20257020616E6420E6
:10239C0025700D0A000D0A4D616C6C6F632066612F
:1023AC00696C656420666F72206275666665722062
:1023BC0073697A652025642C2063686F6F736520C0
:1023CC00736F6D657468696E6720736D616C6C6595
:1023DC00720D0A000D0A456E7465722061207369D6
:1023EC007A6520666F7220746865206E657720624E
:1023FC007566666572206265747765656E20256406
:10240C0020616E642025643A20000D0A4F757420FB
:10241C006F6620706F737369626C65206275666697
:10242C006572732E20416C6C6F636174696F6E20E2
:10243C006661696C6564000D0A427566666572209A
:10244C006F662073697A653A20256420616C6C6F25
:10245C006361746564206174206164647265737374
:10246C003A202570200D0A000D0A4D616C6C6F63CB
:10247C00206661696C656420666F722062756666A1
:10248C0065722073697A652025640D0A000D0A4572
:10249C006E746572206964206F662062756666656D
:1024AC007220796F752077616E7420746F2066725C
:1024BC0065653A20000D0A43616E63656C6C696E4C
:1024CC0067000D0A43616E27742066726565206291
:1024DC007566666572732030206F7220312E204530
:1024EC006E74657220616E6F7468657220627566B9
:1024FC006665722069643A20000D0A46726565694A
:10250C006E6720427566666572202564000D0A4967
:10251C006E76616C696420627566666572206964AA
:10252C002025642E004E756D626572206F662063E7
:10253C0068617261637465727320696E7075742062
:10254C0073696E6365206C61737420273F273A2092
:10255C0025640D0A000D0A0D0A53776170706564CD
:10256C0020636F6E74656E7473206F66204275669F
:10257C006665723020616E642042756666657220F5
:10258C00312E0D0A000D0A43616E2774207377619A
:10259C00702E204E65656420746F20616C6C6F63C7
:1025AC006174652062756666657220312E205072EA
:1025BC0065737320272B27000D0A2A2A2A2A2A2A18
:1025CC002A2A2A2A2A2A2A2A2A2A2A2A2A2A000DA6
:1025DC000A2A2057656C636F6D6520746F204C61FF
:1025EC00622033202A000D0A417574686F723A20FC
:1025FC004A6F6579204A61636F627573000D0A4FEB
:10260C0063746F6265722032303136000D0A456D8D
:10261C006265646465642053797374656D732044DA
:10262C00657369676E3A2054686520556E697665E6
:10263C007273697479206F6620436F6C6F7261647A
:10264C006F20617420426F756C646572000D0A0D09
:10265C000A00456E74657220616C706861206E753D
:10266C006D6572696320636861726163746572730E
:10267C0020746F2073746F7265207468656D2069A7
:10268C006E2062756666657220300D0A00456E74A8
:10269C0065722061207370656369616C2063686189
:1026AC0072616374657220617420616E7920746943
:1026BC006D6520746F20706572666F726D20746822
:1026CC006520666F6C6C6F77696E67206F70733AFC
:1026DC000D0A000D0A272B273A2043726561746599
:1026EC002061206E657720627566666572000D0A42
:1026FC00272D273A2044656C65746520616E206532
:10270C0078697374696E6720627566666572000D10
:10271C000A273F273A20436C65617220636F6E7401
:10272C00656E7473206F6620427566666572203024
:10273C0020616E6420646973706C617920696E200D
:10274C00415343494920666F726D6174000D0A272D
:10275C003D273A2053686F7720636F6E74656E74F3
:10276C0073206F6620427566666572203020696E34
:10277C002068657861646563696D616C20666F7251
:10278C006D6174000D0A272563273A205377617019
:10279C002074686520636F6E74656E7473206F6649
:1027AC0020427566666572203020616E6420427529
:1027BC00666665722031000D0A2740273A20436C6B
:1027CC00656172206275666665727320616E642045
:1027DC0072657374617274207468652070726F67AF
:1027EC0072616D000D0A456E7465722063686172CA
:1027FC0061637465727320746F2061646420746FFC
:10280C0020427566666572303A20000D0A42756684
:0D281C00666572732073657420757021006D
:06288E00FFFF0000000046
:10120300E582900B15F03099FD900B15E0F599C22E
:10121300992210980280FBAA998A8222AA83E582E6
:10122300900B16F0A3EAF0900B23E4F0A3F0900BDD
:1012330016E0FAA3E0FBC3740A9A74808BF063F0A0
:101243008095F050197429C0E07428C0E07480C000
:10125300E012189F15811581158190FFFF22900BD5
:1012630023E0FCA3E0FDC3EC9AED64808BF063F014
:101273008095F04003021320C002C003C004C005E0
:10128300121215AE82D005D004D003D0028E82C0D4
:1012930002C003C004C005C006121203D006D00565
:1012A300D004D003D002BE0D03021320BE0812ECFB
:1012B30024FFFFED34FFF8900B23EFF0A3E8F08059
:1012C3009DBE71028003BE510490FFFE228E82C038
:1012D30002C003C004C005C006121606E582D0068C
:1012E300D005D004D003D002601AEC2418F582EDA7
:1012F300340BF583EEF0900B2374012CF0E43DA343
:10130300F0021261745BC0E07428C0E07480C0E036
:1013130012189F15811581158190FFFF22900B23D1
:10132300E0FAA3E0FBEA2418F582EB340BF583E43F
:10133300F0900B1875F0000214D3AAF0AB83E5828A
:10134300900B27F0A3EBF0A3EAF0121215AA8290F8
:101353000B2AEAF08A82121203900B25E0FAA3E02B
:10136300FB900B27E0F508A3E0F509A3E0F50A7F5E
:10137300007800900B2AE0F9B90D02805DC3EF9A63
:10138300E864808BF063F08095F0504EC002C00398
:10139300EF2508FAE83509FBAC0A8A828B838CF0C7
:1013A300E91217E0C003C007C000121215AA82D0C9
:1013B30000D007D003900B2AEAF08A82C002C00350
:1013C300C007C000121203D000D007D003D0020F11
:1013D300BF000108D003D0028099900B27E0FAA345
:1013E300E0FBA3E0FCEF2AFFE83BF88C058F828843
:1013F300838DF0E40217E0759850758920758DFD93
:08140300758BFDD28ED29922F7
:1028290053657269616C5F676574496E7465676544
:102839007228293A204572726F722E204D61785F95
:102849004C656E67746820746F6F206C6172676580
:102859002E000D0A496E76616C69642063686172A5
:1028690061637465722E20456E746572206F6E6C9B
:0A28790079206469676974732E000A
:10140B00AA83E582900B2DF0A3EAF0900B2DE0FA66
:10141B00A3E0FB4A700490000022EA24FCFAEB34B0
:10142B00FFFB900B38E0FCA3E0FD900B2FECF0A33F
:10143B00EDF0900B2BE4F0A3F0900B2FE0FCA3E06E
:10144B00FD4C6025EAB50406EBB50502801B900B3D
:10145B002BECF0A3EDF08C828D83E0FCA3E0FD90F0
:10146B000B2FECF0A3EDF080D0900B2FE0FAA3E064
:10147B008A82F58322AAF0AB83E582900B31F0A32D
:10148B00EBF0A3EAF0900B31E0FAA3E0FBA3E0FC56
:10149B008A828B8312140BAA82AB83EA4B6028904F
:1014AB000B2BE0FCA3E0FD4C700B8A828B83A3A378
:1014BB00E4F0A3F0228A828B83E0FAA3E0FB8C8218
:0814CB008D83EAF0A3EBF0228F
:06003200E478FFF6D8FDA2
:1014D300AAF0AB83E582900B34F0A3EBF0A3EAF020
:1014E3007A007B00900B34E0FCA3E0FDA3E0FE8CCC
:1014F300828D838EF012213EFF6039C374B98FF061
:1015030063F08095F04007EF648094B050268C829E
:101513008D838EF012213EFFBF2D028017BF2B0259
:1015230080120CBC00010D900B34ECF0A3EDF0A382
:10153300EEF080BB900B34ECF0A3EDF0A3EEF08C57
:10154300828D838EF012213EFFE4BF2D0104F888C3
:10155300017003BF2B0E900B3474012CF0E43DA3F8
:10156300F0A3EEF0900B34E0FCA3E0FDA3E0FE8CCF
:10157300828D838EF012213EFF6068C3EF648094F6
:10158300B0406074B98FF063F08095F04055C001AE
:10159300900B47740AF0E4A3F08A828B83C004C0E3
:1015A30005C006C007C0011217F985820B85830C9D
:1015B300D001D007D006D005D004EF3395E0F8EF83
:1015C30024D0FFE834FFF8EF250BFAE8350CFB0CC9
:1015D300BC00010D900B34ECF0A3EDF0A3EEF0D0C2
:1015E30001808C900B34ECF0A3EDF0A3EEF0E960F6
:1015F30009C3E49AFCE49BFD80048A048B058C8276
:031603008D8322B2
:100010007906E94400601B7A0190288E787875A0F3
:100020000BE493F2A308B8000205A0D9F4DAF27544
:02003000A0FF2F
:10160600E582900B37F0900B37E0FABA30004009CC
:10161600EA24C640047582012275820022AA83E567
:1016260082900B3CF0A3EAF0900B3CE0FAA3E0FBBF
:10163600900B3EEAF0A3EBF0EA4B7020900B3E7461
:10164600012AF0E43BA3F0900B3AE0FAA3E0FB1A80
:10165600BAFF011B900B3AEAF0A3EBF0900B3EE0C9
:10166600FAA3E0FB900B38EAF0A3EBF0900B3AE01C
:10167600FCA3E0FDEC2AFCED3BFDEC24FEFCED3486
:10168600FFFD8A828B83ECF0A3EDF08C828D83E4E0
:10169600F0A3F08A828B83A3A3E4F0A3F022AA83AB
:1016A600E582900B40F0A3EAF0900B40E0FAA3E04D
:1016B600FBC374FB9A74FF9B500490000022900BAE
:1016C6004074042AF0E43BA3F0900B38E0FAA3E060
:1016D600FB900B42EAF0A3EBF0900B40E0F513A36E
:1016E600E0F514900B42E0FCA3E0FD8C828D83E0D4
:1016F600FEA3E0FF8E008F018C028D03E8C39AF8EB
:10170600E99BF98C828D83A3A3E0FAA3E0FBE8C3EF
:101716009AF8E99BF9C3E89513E99514400D900BE7
:101726004474042CF0E43DA3F08023900B42EEF0C9
:10173600A3EFF0900B42E0FAA3E0FB8A828B83E0F2
:10174600FAA3E0FB4A709C900B44E4F0A3F0900BE4
:1017560044E0FAA3E0FB4A70030217D4900B42E080
:10176600FAA3E0FB74022AFCE43BFD8C828D83E045
:10177600FEA3E0FF4E7013900B40E0F8A3E0F98C57
:10178600828D83E8F0A3E9F08044EE2AFEEF3BFF6A
:101796008A828B83E0FCA3E0FD8E828F83ECF0A32C
:1017A600EDF08A828B83EEF0A3EFF074022EFAE45A
:1017B6003FFB900B40E0FCA3E0FD8A828B83ECF0BC
:1017C600A3EDF0900B4474042EF0E43FA3F0900BCD
:1017D60044E0FAA3E08A82F5832220F71030F6115E
:1017E6008883A88220F507F6A88375830022F280F5
:1017F600F7F022AA83AB828BF0900B47E0A4F8A9FE
:10180600F08AF0E0A429F98BF0A3E0A429F58388F7
:0318160082222209
:100038007800E84400600A790075A000E4F309D864
:10004800FC7878E8440B600C790C900000E4F0A38D
:04005800D8FCD9FAFD
:10181900E582900B49F0900B49E0FABA6100400962
:10182900EA248540047582012275820022E58290AE
:101839000B4AF0900B4AE0FABA41004009EA24A5A4
:1018490040047582012275820022C012858112AA84
:1018590082121203D01222AAF0AB83E582900B4CBC
:10186900F0A3EBF0A3EAF0900B4CE0FAA3E0FBA3A2
:10187900E0FC900B4BE0FD900B5FE4F0A3F0A3F0CC
:10188900900B62EAF0A3EBF0A3ECF0900B65EDF09E
:101899009018530219B8C012858112E51224FBFA77
:1018A900900B5FE4F0A3F0A3F0E51224FBF8900B92
:1018B90062E6F008A3E6F008A3E6F0900B65EAF00B
:1018C9009018531219B8AA82AB83D01222E58290DC
:1018D9000B5BF0900B5BE0FA900B51E0C0E0A3E0EA
:1018E900C0E0A3E0C0E07404C0E07419C0E0900B4C
:1018F9004FE0C0E0A3E0C0E08A822215811581157E
:1019090081900B59E0FAA3E0FB900B5974012AF07E
:10191900E43BA3F022E582900B5CF0900B5CE0FACB
:1019290074302AFA24C6500A74072AFA3006034387
:1019390002208A820218D6E582900B5DF0900B5D39
:10194900E0FAC4540FFBF582C00212191ED00253EB
:10195900020F8A8202191EE582900B5EF0900B54E9
:10196900E0FAA3E0FBA3E0FCA3E0FD900B58E0FE46
:10197900900B5EE0FF7820EE2EFEED235401F94234
:1019890006EA2AFAEB33FBEC33FCED33FDC3EE9F99
:101999004007EEC39FFE430201D8DC900B54EAF0E6
:1019A900A3EBF0A3ECF0A3EDF0900B58EEF022AA14
:1019B90083E582900B66F0A3EAF0900B66E0FAA348
:1019C900E0FB900B4FEAF0A3EBF0900B5FE0FAA37A
:1019D900E0FBA3E0FC900B51EAF0A3EBF0A3ECF0E1
:1019E900900B59E4F0A3F0900B62E0FAA3E0FBA39B
:1019F900E0FC8A828B838CF012213EFD900B62748D
:101A0900012AF0E43BA3F0A3ECF0ED70030220DF20
:101A1900BD250280030220D7C207C208C209C20A33
:101A2900C20BC20CC20DC20E900B68E4F0900B6998
:101A3900F0900B6A74FFF0900B62E0FAA3E0FBA34D
:101A4900E0FC8A828B838CF012213EFEA3AA82AB32
:101A590083900B62EAF0A3EBF0A3ECF0900B6CEE31
:101A6900F0BE25088E821218D60219F08E07BF30F3
:101A79000040498E07EF24C64042900B6AE0FFBF41
:101A8900FF29C002C003C004900B69E0FA75F00A8F
:101A9900A4FAEE24D0900B692AF0900B69E0FAD0F1
:101AA90004D003D002709BD2088097EF75F00AA486
:101AB900FFEE24D0900B6A2FF0021A4B900B6CE0CA
:101AC900FEBE2E08900B6AE4F0021A4B8E82C00209
:101AD900C003C004C006121819E58224FF9206D07B
:101AE90006D004D003D002300607900B6C74DF5E79
:101AF900F0900B6CE0FEBE20028055BE2B02804B9D
:101B0900BE2D028041BE4202804BBE43028050BEC0
:101B19004403021D4CBE4603021D6EBE4903021D4D
:101B29004CBE4C028034BE4F03021D56BE50030208
:101B39001CAEBE53028042BE5503021D5EBE580351
:101B4900021D66021D72D207021A4BD209021A4BF4
:101B5900D20A021A4BD20C021A4BD20D021A4B901E
:101B69000B65E0FA24FEF8900B65F08602088603FF
:101B7900188A821218D6021D7E900B65E0FA24FDA0
:101B8900F8900B65F08602088603088604181890F9
:101B99000B54EAF0A3EBF0A3ECF0900B54E0FAA39A
:101BA900E0FBA3E0FC8A828B838CF01220EBAA82F3
:101BB900AB83900B6AE0FBBBFF05900B6AEAF02050
:101BC9000738900B69E0FBC3EA9B502E900B69EB39
:101BD900C39AF0900B69E0FB8B041B900B69EBF047
:101BE900BC00028010758220C002C0031218D6D032
:101BF90003D00280E3900B69EBF0900B6AE0FDC023
:101C090002900B54E0FCA3E0FFA3E0FA8C828F83DF
:101C19008AF012213ED00260538D041DC374808C5A
:101C2900F063F08095F05044C002900B54E0F50D3C
:101C3900A3E0F50EA3E0F50F7401250DFBE4350EC5
:101C4900FAAC0F900B54EBF0A3EAF0A3ECF0850D7E
:101C590082850E83850FF012213EFAF582C002C0FB
:101C6900051218D6D005D002D002809320070302AE
:101C79001D7E900B69E0FBC3EA9B4003021D7E9029
:101C89000B69EBC39AF0900B69E0FA8A031A900B7F
:101C990069EAF0BB0003021D79758220C00212189F
:101CA900D6D00280E6900B65E0FB24FDF8900B6529
:101CB900F086030886040886071818900B54EBF081
:101CC900A3ECF0A3EFF0900B56E0FB247F500890B3
:101CD9000B6C7443F08020EB249F5008900B6C74BC
:101CE90050F08013EB24BF5008900B6C7449F080BE
:101CF90006900B6C7458F0900B6CE0FBF582C003F6
:101D09001218D6D00375823AC0031218D6D00375BB
:101D19008230C0031218D6D003758278C003121816
:101D2900D6D003BB4902800FBB5002800A900B55E5
:101D3900E0FBF582121940900B54E0FBF582121971
:101D4900408032D20B900B68740AF08028900B689F
:101D59007408F08020900B68740AF08018900B6862
:101D69007410F08010D20E800C8E821218D6800565
:101D7900900B69EAF0300E6B900B65E0FA24FCF8E1
:101D8900900B65F086020886030886040886061803
:101D99001818900B54EAF0A3EBF0A3ECF0A3EEF0C3
:101DA900900B547483F0A37428F0A37480F0900B03
:101DB90054E0FBA3E0FCA3E0FD74012BFEE43CFF2F
:101DC9008D02900B54EEF0A3EFF0A3EAF08B828C16
:101DD900838DF012213EFA70030219F08A821218DB
:101DE900D680CB900B68E0FABA00030219F0900B89
:101DF900737472F0A3740BF0300C4C900B65E0FA1D
:101E090014F8900B65F08602EA3395E0FBFCFE902E
:101E19000B54EAF0A3EBF0A3ECF0A3EEF0300B03C4
:101E2900021EC6900B54E0FAA3E0FBA3E0FCA3E07A
:101E3900FE7B007C007E00900B54EAF0A3EBF0A33C
:101E4900ECF0A3EEF08076300D2A900B65E0FA24D1
:101E5900FCF8900B65F0860208860308860408865C
:101E690006181818900B54EAF0A3EBF0A3ECF0A3B2
:101E7900EEF08049900B65E0FA24FEF8900B65F0CE
:101E8900860208860318EB3395E0FCFE900B54EAB2
:101E9900F0A3EBF0A3ECF0A3EEF0200B20900B5491
:101EA900E0FAA3E0FBA3E0FCA3E0FE7C007E009047
:101EB9000B54EAF0A3EBF0A3ECF0A3EEF0300B3EE9
:101EC900900B54E0FAA3E0FBA3E0FCA3E0FE30E7AB
:101ED9002B900B54E0FAA3E0FBA3E0FCA3E0FEC3C4
:101EE900E49AFAE49BFBE49CFCE49EFE900B54EA22
:101EF900F0A3EBF0A3ECF0A3EEF08002C20BD20F3B
:101F0900900B68E0FC75107275110B7D00900B58F1
:101F1900E4F08C82C004C005121960D005D00420F9
:101F29000F32C004900B58E0FFC4FF851082851161
:101F390083E0FA4207851082851183EFF01510744A
:101F4900FFB510021511900B73E510F0A3E511F020
:101F5900D004800C900B58E0FF851082851183F026
:101F69000D900B6BEDF0B20F900B54E0FFA3E0FA6C
:101F7900A3E0FEA3E0FBEF4A4E4B7091900B73E593
:101F890010F0A3E511F0900B6BEDF0900B69E0FAFE
:101F99007006900B697401F020082720072474014A
:101FA9002DFA900B69E0FBC3EA9B5011758220C0A2
:101FB90002C0031218D6D003D0021B80EA900B6925
:101FC900EBF0300B1275822D1218D6900B69E0FADE
:101FD90014900B69F0802F900B6BE0FA60283009A0
:101FE9001275822B1218D6900B69E0FA14900B69BE
:101FF900F08013300A107582201218D6900B69E010
:10200900FA14900B69F020072F900B6BE0FA900BF4
:1020190069E0FB8B041B900B69EBF0C3EA9C50361B
:102029003008047C3080027C208C82C002C00312FC
:1020390018D6D003D00280DB900B69E0FA900B6BC5
:10204900E0FCC39A5009900B69EAC39CF0800C909C
:102059000B69E4F08005900B69EBF0900B73E0FAE3
:10206900A3E0FB900B6BE0FC8C061CEE6040B20F0A
:10207900200F150ABA00010B8A828B83E0FEC45433
:102089000FFE900B58F0800E8A828B83E0FE530678
:102099000F900B58EEF0900B58E0FEF582C002C08D
:1020A90003C00412191ED004D003D00280BA20073D
:1020B900030219F0900B69E0FA8A031AEB70030224
:1020C90019F0758220C0021218D6D00280EB8D82D9
:1020D9001218D60219F0900B59E0FAA3E08A82F59A
:0220E900832250
:0B2883003C4E4F20464C4F41543E009D
:1020EB00AAF0AB83E582900B75F0A3EBF0A3EAF0BB
:1020FB007A007B00900B75E0FCA3E0FDA3E0FE8C67
:10210B00828D838EF012213EFFA3AC82AD83900BA8
:10211B0075ECF0A3EDF0A3EEF0EF60070ABA00DF69
:10212B000B80DC900B75ECF0A3EDF0A3EEF08A8244
:03213B008B832271
:0D00030075813D12084CE58260030208473C
:10213E0020F71430F6148883A88220F507E6A883CA
:0C214E0075830022E280F7E49322E02277
:00000001FF
