:03000000020003F8
:10005C0002005F12009880FE438E0C90000022E597
:10006C0082900000F03099FD900000E0F599C29963
:10007C002210980280FBAA998A8222759850758961
:10008C0020758DFD758BFDD28ED29922120087C200
:10009C0094B29412007DE582FA3395E0FBC002C065
:1000AC000374FDC0E07409C0E07480C0E012012547
:1000BC00E58124FBF5817417C0E0740AC0E07480FC
:0D00CC00C0E012012515811581158180C449
:1009FD0043686172616374657220726563656976BF
:0F0A0D006564203D2025630D0A00746573740035
:06003200E478FFF6D8FDA2
:100010007900E94400601B7A00900A27782F75A0C8
:1000200000E493F2A308B8000205A0D9F4DAF2754F
:02003000A0FF2F
:100038007800E84400600A790075A000E4F309D864
:10004800FC782FE84400600C7901900000E4F0A3EC
:04005800D8FCD9FAFD
:1000D900C00D85810DAA8212006BD00D22AAF0AB4A
:1000E90083E582900002F0A3EBF0A3EAF09000020E
:1000F900E0FAA3E0FBA3E0FC900001E0FD9000150D
:10010900E4F0A3F0A3F0900018EAF0A3EBF0A3EC5D
:10011900F090001BEDF09000D902023EC00D8581E0
:100129000DE50D24FBFA900015E4F0A3F0A3F0E52A
:100139000D24FBF8900018E6F008A3E6F008A3E602
:10014900F090001BEAF09000D912023EAA82AB831C
:10015900D00D22E582900011F0900011E0FA900094
:1001690007E0C0E0A3E0C0E0A3E0C0E0748AC0E01B
:100179007401C0E0900005E0C0E0A3E0C0E08A821D
:100189002215811581158190000FE0FAA3E0FB90FB
:10019900000F74012AF0E43BA3F022E582900012DB
:1001A900F0900012E0FA74302AFA24C6500A740753
:1001B9002AFA3000034302208A8202015CE5829018
:1001C9000013F0900013E0FAC4540FFBF582C0024B
:1001D9001201A4D00253020F8A820201A4E582907F
:1001E9000014F090000AE0FAA3E0FBA3E0FCA3E00E
:1001F900FD90000EE0FE900014E0FF7820EE2EFE48
:10020900ED235401F94206EA2AFAEB33FBEC33FCFD
:10021900ED33FDC3EE9F4007EEC39FFE430201D8B5
:10022900DC90000AEAF0A3EBF0A3ECF0A3EDF09068
:10023900000EEEF022AA83E58290001CF0A3EAF0FA
:1002490090001CE0FAA3E0FB900005EAF0A3EBF0B4
:10025900900015E0FAA3E0FBA3E0FC900007EAF0A8
:10026900A3EBF0A3ECF090000FE4F0A3F0900018DA
:10027900E0FAA3E0FBA3E0FC8A828B838CF01209ED
:10028900C4FD90001874012AF0E43BA3F0A3ECF03C
:10029900ED7003020965BD2502800302095DC201F3
:1002A900C202C203C204C205C206C207C208900044
:1002B9001EE4F090001FF090002074FFF0900018E9
:1002C900E0FAA3E0FBA3E0FC8A828B838CF012099D
:1002D900C4FEA3AA82AB83900018EAF0A3EBF0A3B3
:1002E900ECF0900022EEF0BE25088E8212015C022D
:1002F90002768E07BF300040498E07EF24C6404280
:10030900900020E0FFBFFF29C002C003C004900095
:100319001FE0FA75F00AA4FAEE24D090001F2AF023
:1003290090001FE0FAD004D003D002709BD2028063
:1003390097EF75F00AA4FFEE24D09000202FF00269
:1003490002D1900022E0FEBE2E08900020E4F002C7
:1003590002D18E82C002C003C004C0061209E0E5C2
:100369008224FF9200D006D004D003D002300007C7
:1003790090002274DF5EF0900022E0FEBE20028031
:1003890055BE2B02804BBE2D028041BE4202804BDE
:10039900BE43028050BE44030205D2BE4603020595
:1003A900F4BE49030205D2BE4C028034BE4F03029B
:1003B90005DCBE5003020534BE53028042BE55031C
:1003C9000205E4BE58030205EC0205F8D201020257
:1003D900D1D2030202D1D2040202D1D2060202D141
:1003E900D2070202D190001BE0FA24FEF890001B0C
:1003F900F08602088603188A8212015C02060490BC
:10040900001BE0FA24FDF890001BF0860208860321
:10041900088604181890000AEAF0A3EBF0A3ECF0A0
:1004290090000AE0FAA3E0FBA3E0FC8A828B838CAC
:10043900F0120971AA82AB83900020E0FBBBFF0593
:10044900900020EAF020013890001FE0FBC3EA9BEE
:10045900502E90001FEBC39AF090001FE0FB8B0415
:100469001B90001FEBF0BC00028010758220C002B7
:10047900C00312015CD003D00280E390001FEBF0AF
:10048900900020E0FDC00290000AE0FCA3E0FFA379
:10049900E0FA8C828F838AF01209C4D00260538DEE
:1004A900041DC374808CF063F08095F05044C00241
:1004B90090000AE0F508A3E0F509A3E0F50A740144
:1004C9002508FBE43509FAAC0A90000AEBF0A3EA27
:1004D900F0A3ECF0850882850983850AF01209C426
:1004E900FAF582C002C00512015CD005D002D00223
:1004F900809320010302060490001FE0FBC3EA9BDE
:10050900400302060490001FEBC39AF090001FE01D
:10051900FA8A031A90001FEAF0BB00030205FF756F
:100529008220C00212015CD00280E690001BE0FB31
:1005390024FDF890001BF086030886040886071836
:100549001890000AEBF0A3ECF0A3EFF090000CE098
:10055900FB247F50089000227443F08020EB249FF5
:1005690050089000227450F08013EB24BF5008907B
:1005790000227449F080069000227458F0900022FD
:10058900E0FBF582C00312015CD00375823AC00317
:1005990012015CD003758230C00312015CD003756F
:1005A9008278C00312015CD003BB4902800FBB50A3
:1005B90002800A90000BE0FBF5821201C690000A46
:1005C900E0FBF5821201C68032D20590001E740A42
:1005D900F0802890001E7408F0802090001E740A94
:1005E900F0801890001E7410F08010D208800C8ED4
:1005F9008212015C800590001FEAF030086B9000C0
:100609001BE0FA24FCF890001BF086020886030818
:10061900860408860618181890000AEAF0A3EBF079
:10062900A3ECF0A3EEF090000A741CF0A3740AF096
:10063900A37480F090000AE0FBA3E0FCA3E0FD7442
:10064900012BFEE43CFF8D0290000AEEF0A3EFF0CF
:10065900A3EAF08B828C838DF01209C4FA7003022D
:1006690002768A8212015C80CB90001EE0FABA0001
:10067900030202769000297428F0A37400F0300672
:100689004C90001BE0FA14F890001BF08602EA3344
:1006990095E0FBFCFE90000AEAF0A3EBF0A3ECF076
:1006A900A3EEF030050302074C90000AE0FAA3E03C
:1006B900FBA3E0FCA3E0FE7B007C007E0090000A27
:1006C900EAF0A3EBF0A3ECF0A3EEF0807630072A72
:1006D90090001BE0FA24FCF890001BF086020886C3
:1006E9000308860408860618181890000AEAF0A379
:1006F900EBF0A3ECF0A3EEF0804990001BE0FA24A4
:10070900FEF890001BF0860208860318EB3395E08B
:10071900FCFE90000AEAF0A3EBF0A3ECF0A3EEF0E4
:1007290020052090000AE0FAA3E0FBA3E0FCA3E087
:10073900FE7C007E0090000AEAF0A3EBF0A3ECF047
:10074900A3EEF030053E90000AE0FAA3E0FBA3E037
:10075900FCA3E0FE30E72B90000AE0FAA3E0FBA33C
:10076900E0FCA3E0FEC3E49AFAE49BFBE49CFCE40E
:100779009EFE90000AEAF0A3EBF0A3ECF0A3EEF0E2
:100789008002C205D20990001EE0FC750B28750C89
:10079900007D0090000EE4F08C82C004C0051201B7
:1007A900E6D005D004200932C00490000EE0FFC451
:1007B900FF850B82850C83E0FA4207850B82850C45
:1007C90083EFF0150B74FFB50B02150C900029E5AA
:1007D9000BF0A3E50CF0D004800C90000EE0FF852F
:1007E9000B82850C83F00D900021EDF0B209900089
:1007F9000AE0FFA3E0FAA3E0FEA3E0FBEF4A4E4BB9
:100809007091900029E50BF0A3E50CF0900021ED23
:10081900F090001FE0FA700690001F7401F02002AA
:100829002720012474012DFA90001FE0FBC3EA9BE5
:100839005011758220C002C00312015CD003D0029E
:100849001B80EA90001FEBF030051275822D120112
:100859005C90001FE0FA1490001FF0802F90002197
:10086900E0FA602830031275822B12015C90001F98
:10087900E0FA1490001FF0801330041075822012E2
:10088900015C90001FE0FA1490001FF020012F90E6
:100899000021E0FA90001FE0FB8B041B90001FEB86
:1008A900F0C3EA9C50363002047C3080027C208CF4
:1008B90082C002C00312015CD003D00280DB900029
:1008C9001FE0FA900021E0FCC39A500990001FEA4A
:1008D900C39CF0800C90001FE4F0800590001FEB92
:1008E900F0900029E0FAA3E0FB900021E0FC8C06DF
:1008F9001CEE6040B2092009150ABA00010B8A8270
:100909008B83E0FEC4540FFE90000EF0800E8A82A5
:100919008B83E0FE53060F90000EEEF090000EE080
:10092900FEF582C002C003C0041201A4D004D003A2
:10093900D00280BA20010302027690001FE0FA8AF1
:10094900031AEB7003020276758220C00212015C61
:10095900D00280EB8D8212015C02027690000FE0DA
:08096900FAA3E08A82F5832263
:0B0A1C003C4E4F20464C4F41543E0022
:10097100AAF0AB83E58290002BF0A3EBF0A3EAF0A1
:100981007A007B0090002BE0FCA3E0FDA3E0FE8C4D
:10099100828D838EF01209C4FFA3AC82AD839000D7
:1009A1002BECF0A3EDF0A3EEF0EF60070ABA00DF45
:1009B1000B80DC90002BECF0A3EDF0A3EEF08A822B
:0309C1008B832203
:0D000300758121120064E582600302005F38
:1009C40020F71430F6148883A88220F507E6A8835C
:1009D40075830022E280F7E49322E022E58290000E
:1009E4002EF090002EE0FABA61004009EA24854016
:0909F400047582012275820022C3
:00000001FF
