:040000000200363292
:01000B0032C2
:0100130032BA
:01001B0032B2
:0100230032AA
:01002B0032A2
:0300330002062C96
:03008F00020092DA
:0500920012032180FEB5
:07009700438E0C90000022D3
:0A009E007498C0E07411C0E0748093
:0C00A800C0E01208C0158115811581749C
:0A00B400AAC0E07411C0E07480C01F
:0C00BE00E01208C01581158115817498AE
:0B00CA00C0E07411C0E07480C0E012C0
:0C00D50008C015811581158174B7C0E0CA
:0C00E1007411C0E07480C0E01208C0156B
:0A00ED00811581158174D0C0E07404
:0C00F70011C0E07480C0E01208C0158148
:0A0103001581158174E8C0E0741145
:0E010D00C0E07480C0E01208C0158115811595
:0A011B0081740FC0E07412C0E0749C
:0D01250080C0E01208C0158115811581749D
:0A01320036C0E07412C0E07480C013
:0C013C00E01208C0158115811581745572
:0B014800C0E07412C0E07480C0E01240
:0C01530008C0158115811581747AC0E088
:0C015F007412C0E07480C0E01208C015EB
:0A016B00811581158174B6C0E0749F
:0C01750012C0E07480C0E01208C01581C8
:0A0181001581158174D8C0E07412D6
:0E018B00C0E07480C0E01208C0158115811517
:020199008122C1
:0E019B00E582900000F0900000E0FABA2B031D
:0301A9000202351A
:0601AC00BA2D0302026EF1
:0601B200BA44030203063B
:0601B800BA480302031E19
:0601BE00BA49030202A78A
:0601C400BA50030202C95B
:0501CA00BA5202800C96
:0501CF00BA5302804953
:0601D400BA54030202EB25
:0101DA002202
:0A01DB0074FBC0E07412C0E07480F1
:0E01E500C0E01208C015811581158112064771
:0A01F30012034C7582281203561205
:0C01FD0003FAAA827B00C002C003742138
:0B020900C0E07413C0E07480C0E0127D
:0902140008C0E58124FBF58122FC
:0A021D007436C0E07413C0E0748072
:0E022700C0E01208C01581158115810203B5D3
:0A023500744BC0E07413C0E0748045
:0E023F00C0E01208C01581158115811203BBA5
:0C024D001203FAAA827B00C002C00374F6
:0A02590021C0E07413C0E07480C0FF
:0B026300E01208C0E58124FBF58122B9
:0A026E00746CC0E07413C0E07480EB
:0E027800C0E01208C01581158115811203DB4C
:0C0286001203FAAA827B00C002C00374BD
:0A02920021C0E07413C0E07480C0C6
:0B029C00E01208C0E58124FBF5812280
:0A02A700748DC0E07413C0E0748091
:0E02B100C0E01208C01581158115811203B539
:0A02BF0012064743A881438701227D
:0A02C90074C4C0E07413C0E0748038
:0E02D300C0E01208C01581158115811203B517
:0A02E10012064743A881438702225A
:0A02EB007401C0E07414C0E07480D8
:0E02F500C0E01208C01581158115811203B5F5
:03030300020638B7
:0A0306007428C0E07414C0E0748095
:0E031000C0E01208C015811581158102064754
:03031E0002009E3C
:0703210012061B12034C122F
:02032800009E35
:0E032A00120436AA82BA0D0A75820AC00212A7
:040338000424D002C7
:0E033C008A82C002120424D0028A8212019B1F
:02034A0080DE53
:0E1198000D0A2A2A2A2A2A2A2A2A2A2A2A2A3A
:0411A6002A2A2A00C7
:0D11AA000D0A202020204D656E750D0A00F5
:0E11B7000D0A50726573732027522720746F43
:0B11C5002073746172742050574D00BD
:0E11D0000D0A50726573732027532720746F29
:0A11DE002073746F702050574D000D
:0E11E8000D0A507265737320272B2720746F39
:0E11F60020696E6372656173652050574D204D
:0B12040064757479206379636C6500E9
:0E120F000D0A507265737320272D2720746F0F
:0E121D002064656372656173652050574D2033
:0B122B0064757479206379636C6500C2
:0E1236000D0A50726573732027492720746FCC
:0E12440020656E7465722069646C65206D6FA4
:03125200646500D0
:0E1255000D0A50726573732027502720746FA6
:0E12630020656E74657220706F77657220646E
:091271006F776E206D6F6465005B
:0E127A000D0A50726573732027542720746F7D
:0E1288002064697361626C652050574D2061CF
:0E1296006E64207573652050434130206173F3
:0E12A400206120536F66747761726520546973
:0412B2006D657200F4
:0E12B6000D0A50726573732027442720746F51
:0E12C4002074686520536F6674776172652030
:0612D20054696D65720015
:0E12D8000D0A50726573732027482720746F2B
:0E12E60020646973706C6179207468697320EC
:0712F4006D656E750D0A0027
:0E12FB000D0A5374617274696E672050574D6E
:0E1309002077697468206475747920637963B5
:0A1317006C6520343025250D0A0016
:0E13210044757479206379636C6520617420D3
:07132F00256425250D0A00CD
:0E1336000D0A53746F7070696E6720746865DD
:071344002050574D0D0A0077
:0E134B000D0A496E6372656173696E672064F6
:0E135900757479206379636C652062792035A4
:0513670025250D0A0020
:0E136C000D0A44656372656173696E672064E3
:0E137A00757479206379636C65206279203583
:0513880025250D0A00FF
:0E138D000D0A456E746572696E672049646CC6
:0E139B0065204D6F64652E2E2E2050726573F6
:0E13A9007320494E543020427574746F6E20CC
:0D13B700746F2077616B652075700D0A0062
:0E13C4000D0A456E746572696E6720506F7772
:0E13D200657220446F776E204D6F64652E2E7D
:0E13E0002E20507265737320494E5430204207
:0E13EE007574746F6E20746F2077616B6520CC
:0513FC0075700D0A00F0
:0E1401000D0A5374617274696E672074686519
:0E140F0020736F6674776172652074696D6575
:0B141D00722061742034487A0D0A0030
:0E1428000D0A53746F7070696E6720746865EA
:0E14360020736F6674776172652074696D654E
:04144400720D0A001B
:0A034C0075D90043D84075DA00228D
:0E035600E582900002F0D293900002E0FA8A55
:0E036400037A009000197464F0E4A3F08A821A
:0E0372008B83120650AA82AB83900002EAF041
:0E038000E0FA90000274FFC39AF0900002E0D1
:0D038E00FA240B500890000274F4F0800B6C
:03039B00BA0D0098
:08039E005006900002740DF0FE
:0E03A600900002E0FA900001F08AFA75DA4247
:0103B4002226
:0603B50075DA00C293227C
:0803BB00900001E0FABA1A00FB
:0A03C3005008900001740DF080074F
:0703CD00EA24F3900001F0A7
:0703D400900001E0F5FA22A0
:0E03DB00900001E0FA2418500890000174F41C
:0303E900F080079A
:0703EC00900001740D2AF0DE
:0703F300900001E0F5FA2281
:0E03FA00900001E0FA7B0074FFC39AFAE49BC6
:0E040800FB9000247464F0E4A3F08A828B83DE
:0E041600120854AA82AB838B027B008A8222DA
:06042400E582900003F0E8
:0C042A003099FD900003E0F599C2992282
:0504360010980280FB9C
:05043B00AA998A82224B
:0E044000AA83E582900004F0A3EAF090001178
:0E044E00E4F0A3F0900004E0FAA3E0FBC37416
:0E045C000A9A74808BF063F08095F05019744A
:0A046A0048C0E07414C0E07480C0C4
:0E047400E01208C015811581158190FFFF224E
:0E048200900011E0FCA3E0FDC3EC9AED648055
:0C0490008BF063F08095F0400302054102
:0E049C00C002C003C004C005120436AE82D0F8
:0E04AA0005D004D003D0028E82C002C003C071
:0E04B80004C005C006120424D006D005D004EE
:0A04C600D003D002BE0D0302054171
:0E04D000BE0812EC24FFFFED34FFF89000117F
:0704DE00EFF0A3E8F0809DA0
:0504E500BE710280035E
:0304EA00BE5104FC
:0404ED0090FFFE225C
:0D04F1008E82C002C003C004C005C0061208
:0E04FE0006EBE582D006D005D004D003D00274
:0A050C00601AEC2406F582ED3400BD
:0E051600F583EEF090001174012CF0E43DA38B
:04052400F00204825B
:0A052800747AC0E07414C0E074801F
:0E053200C0E01208C015811581158190FFFFF1
:010540002298
:0C054100900011E0FAA3E0FBEA2406F5AC
:0C054D0082EB3400F583E4F090000675AA
:05055900F0000207089C
:0E055E00AAF0AB83E582900015F0A3EBF0A3AA
:0E056C00EAF0120436AA82900018EAF08A82A1
:0C057A00120424900013E0FAA3E0FB90B0
:080586000015E0F508A3E0F503
:09058E0009A3E0F50A7F007800E2
:0A059700900018E0F9B90D02805D34
:0E05A100C3EF9AE864808BF063F08095F05011
:0B05AF004EC002C003EF2508FAE8353B
:0A05BA0009FBAC0A8A828B838CF0E7
:0E05C400E912083BC003C007C000120436AAAB
:0E05D20082D000D007D003900018EAF08A8291
:0E05E000C002C003C007C000120424D000D027
:0A05EE0007D003D0020FBF00010880
:0605F800D003D00280993F
:0E05FE00900015E0FAA3E0FBA3E0FCEF2AFF5B
:0D060C00E83BF88C058F8288838DF0E402B6
:02061900083B9C
:0E061B00759850758920758DFD758BFDD28EFA
:03062900D2992241
:0E14480053657269616C5F676574496E746507
:0E14560067657228293A204572726F722E2047
:0E1464004D61785F4C656E67746820746F6F21
:08147200206C617267652E0019
:0E147A000D0A496E76616C69642063686172C8
:0E14880061637465722E20456E746572206F6C
:0C1496006E6C79206469676974732E0025
:0C062C0053D8FEB29375EA0075FA9632BE
:0E06380075DA0975EA0075FA9643A8C0D293E8
:010646002291
:0906470075DA0053A8BFC293222A
:0E065000AA83E58290001BF0A3EAF090001D43
:0E065E00E4F0A3F0900019E0FAA3E0FB7C109A
:0C066C0090001BE0FDA3E0FE339200EEC6
:0E067800CD25E0CD33FE90001BEDF0A3EEF09B
:0E06860090001DE0FDA3E0FECD25E0CD33FE8B
:0C06940090001DEDF0A3EEF0300012907D
:0E06A000001DE0FDA3E0FE90001D74014DF072
:0306AE00A3EEF0C8
:0E06B10090001DE0FDA3E0FEC3ED9AEE9B401D
:0D06BF001D90001DEDC39AF0EE9BA3F0907E
:0E06CC00001BE0FDA3E0FE90001B74014DF04A
:0306DA00A3EEF09C
:0E06DD00DC8D90001BE0FAA3E08A82F58322F8
:06006500E478FFF6D8FD6F
:0E06EB00E58290001FF090001FE0FABA300088
:0B06F9004009EA24C64004758201227B
:0407040075820022D8
:0E070800AAF0AB83E582900020F0A3EBF0A3F3
:0E071600EAF07A007B00900020E0FCA3E0FDFA
:03072400A3E0FE51
:0E0727008C828D838EF012115FFF6039C374D7
:0E073500B98FF063F08095F04007EF64809478
:03074300B050268D
:0E0746008C828D838EF012115FFFBF2D02801A
:01075400178D
:05075500BF2B02801221
:05075A000CBC00010DC4
:0D075F00900020ECF0A3EDF0A3EEF080BBC5
:0E076C00900020ECF0A3EDF0A3EEF08C828D57
:0C077A00838EF012115FFFE4BF2D01041C
:08078600F888017003BF2B0E7F
:0E078E0090002074012CF0E43DA3F0A3EEF0E7
:0B079C00900020E0FCA3E0FDA3E0FEC5
:0E07A7008C828D838EF012115FFF6068C3EFAD
:0E07B500648094B0406074B98FF063F080955A
:0E07C300F04055C001900024740AF0E4A3F049
:0E07D1008A828B83C004C005C006C007C00129
:0807DF0012085485820B85838A
:0C07E7000CD001D007D006D005D004EFE4
:0E07F3003395E0F8EF24D0FFE834FFF8EF254F
:0A0801000BFAE8350CFB0CBC0001FB
:01080B000DDF
:0E080C00900020ECF0A3EDF0A3EEF0D0018000
:01081A008C51
:0E081B00900020ECF0A3EDF0A3EEF0E96009F0
:09082900C3E49AFCE49BFD800489
:040832008A048B05A4
:050836008C828D83227D
:080043007900E94400601B7A1A
:05004B00009014AD78E7
:030050005475A044
:0A00530000E493F2A308B8000205D0
:08005D00A0D9F4DAF275A0FF4E
:0E083B0020F71030F6118883A88220F507F60A
:05084900A88375830087
:01084E002287
:03084F00F280F73D
:02085200F02292
:0E085400AA83AB828BF0900024E0A4F8A9F0F8
:0E0862008AF0E0A429F98BF0A3E0A429F58325
:040870008882222236
:08006B007800E84400600A7906
:030073000075A075
:0600760000E4F309D8FCD0
:08007C007854E84400600C799F
:0B00840001900000E4F0A3D8FCD9FAC2
:08087400C012858112AA821254
:05087C000424D012224B
:0E088100AAF0AB83E582900027F0A3EBF0A372
:0E088F00EAF0900027E0FAA3E0FBA3E0FC9063
:0E089D000026E0FD90003AE4F0A3F0A3F090F6
:0E08AB00003DEAF0A3EBF0A3ECF0900040ED6E
:0708B900F09008740209D958
:0608C000C012858112E563
:0C08C6001224FBFA90003AE4F0A3F0A327
:0C08D200F0E51224FBF890003DE6F00871
:0D08DE00A3E6F008A3E6F0900040EAF090D9
:0A08EB0008741209D9AA82AB83D069
:0208F5001222CD
:0C08F700E582900036F0900036E0FA90A8
:0E090300002CE0C0E0A3E0C0E0A3E0C0E07480
:0809110025C0E07409C0E0906C
:0C091900002AE0C0E0A3E0C0E08A8222D7
:0E092500158115811581900034E0FAA3E0FBE6
:0C09330090003474012AF0E43BA3F02291
:0E093F00E582900037F0900037E0FA74302A1D
:0C094D00FA24C6500A74072AFA3001038D
:0309590043022036
:05095C008A820208F789
:0E096100E582900038F0900038E0FAC4540FA0
:0E096F00FBF582C00212093FD00253020F8A2C
:04097D008202093FAA
:0E098100E582900039F090002FE0FAA3E0FB31
:0E098F00A3E0FCA3E0FD900033E0FE900039F1
:04099D00E0FF7820DF
:0E09A100EE2EFEED235401F94206EA2AFAEB8F
:0E09AF0033FBEC33FCED33FDC3EE9F4007EE4F
:0609BD00C39FFE4302018E
:0E09C300D8DC90002FEAF0A3EBF0A3ECF0A339
:0809D100EDF0900033EEF0227E
:0E09D900AA83E582900041F0A3EAF09000416D
:0E09E700E0FAA3E0FB90002AEAF0A3EBF09008
:0E09F500003AE0FAA3E0FBA3E0FC90002CEA3D
:0E0A0300F0A3EBF0A3ECF0900034E4F0A3F0CD
:0E0A110090003DE0FAA3E0FBA3E0FC8A828B9C
:0E0A1F00838CF012115FFD90003D74012AF0EF
:0D0A2D00E43BA3F0A3ECF0ED700302110018
:050A3A00BD2502800350
:030A3F000210F8AA
:050A4200C202C203C264
:040A470004C205C21E
:040A4B0006C207C216
:040A4F0008C2099040
:090A53000043E4F0900044F0902F
:0E0A5C00004574FFF090003DE0FAA3E0FBA31C
:020A6A00E0FCAE
:0E0A6C008A828B838CF012115FFEA3AA82ABEC
:0D0A7A008390003DEAF0A3EBF0A3ECF090B8
:0D0A87000047EEF0BE25088E821208F7022F
:020A94000A1145
:050A96008E07BF3000D7
:0E0A9B0040498E07EF24C64042900045E0FF20
:0E0AA900BFFF29C002C003C004900044E0FA61
:0E0AB70075F00AA4FAEE24D09000442AF090C4
:0D0AC5000044E0FAD004D003D002709BD2B0
:030AD20003809707
:0E0AD500EF75F00AA4FFEE24D09000452FF03C
:030AE300020A6C98
:0E0AE600900047E0FEBE2E08900045E4F002AE
:020AF4000A6C8A
:0E0AF6008E82C002C003C004C00612117BE550
:0C0B04008224FF9201D006D004D003D060
:0B0B10000230010790004774DF5EF028
:0A0B1B00900047E0FEBE2002805566
:050B2500BE2B02804B15
:050B2A00BE2D02804118
:050B2F00BE4202804BF4
:050B3400BE43028050E9
:060B3900BE4403020D6D35
:060B3F00BE4603020D8F0B
:060B4500BE4903020D6D24
:050B4B00BE4C028034E5
:060B5000BE4F03020D7709
:060B5600BE5003020CCFAB
:050B5C00BE53028042BF
:060B6100BE5503020D7FEA
:060B6700BE5803020D87D9
:030B6D00020D93E3
:050B7000D202020A6C34
:050B7500D204020A6C2D
:050B7A00D205020A6C27
:050B7F00D207020A6C20
:050B8400D208020A6C1A
:0E0B8900900040E0FA24FEF8900040F0860252
:0C0B9700088603188A821208F7020D9FDE
:0E0BA300900040E0FA24FDF8900040F0860239
:0E0BB100088603088604181890002FEAF0A3A7
:0E0BBF00EBF0A3ECF090002FE0FAA3E0FBA314
:0E0BCD00E0FC8A828B838CF012110CAA82ABA2
:0E0BDB0083900045E0FBBBFF05900045EAF06B
:0C0BE900200238900044E0FBC3EA9B505F
:0D0BF5002E900044EBC39AF0900044E0FB0A
:0D0C02008B041B900044EBF0BC000280103E
:0E0C0F00758220C002C0031208F7D003D00285
:020C1D0080E372
:050C1F00900044EBF021
:050C2400900045E0FD19
:0E0C2900C00290002FE0FCA3E0FFA3E0FA8CD5
:0E0C3700828F838AF012115FD00260538D0409
:0E0C45001DC374808CF063F08095F05044C0A5
:0A0C53000290002FE0F50DA3E0F57C
:080C5D000EA3E0F50F74012560
:070C65000DFBE4350EFAACB3
:0C0C6C000F90002FEBF0A3EAF0A3ECF0D7
:070C7800850D82850E8385C6
:0C0C7F000FF012115FFAF582C002C005F0
:0B0C8B001208F7D005D002D0028093C1
:060C9600200203020D9F85
:0D0C9C00900044E0FBC3EA9B4003020D9F63
:0C0CA900900044EBC39AF0900044E0FA85
:0E0CB5008A031A900044EAF0BB0003020D9A75
:0C0CC300758220C0021208F7D00280E603
:0E0CCF00900040E0FB24FDF8900040F086030A
:0E0CDD00088604088607181890002FEBF0A375
:0E0CEB00ECF0A3EFF0900031E0FB247F500806
:080CF9009000477443F08020D5
:0D0D0100EB249F50089000477450F08013C1
:0D0D0E00EB24BF50089000477449F08006A8
:060D1B009000477458F03F
:0E0D2100900047E0FBF582C0031208F7D003F4
:0E0D2F0075823AC0031208F7D003758230C0F7
:0E0D3D00031208F7D003758278C0031208F77E
:070D4B00D003BB4902800F39
:050D5200BB5002800A05
:0A0D5700900030E0FBF58212096104
:0C0D610090002FE0FBF582120961803247
:0A0D6D00D206900043740AF08028BB
:080D77009000437408F0802095
:080D7F00900043740AF0801893
:080D87009000437410F080108D
:040D8F00D209800CF9
:070D93008E821208F78005B3
:050D9A00900044EAF0A6
:0C0D9F0030096B900040E0FA24FCF89052
:0E0DAB000040F08602088603088604088606CB
:0E0DB90018181890002FEAF0A3EBF0A3ECF04E
:0B0DC700A3EEF090002F74A2F0A374C4
:060DD20014F0A37480F090
:0E0DD80090002FE0FBA3E0FCA3E0FD74012BD4
:0E0DE600FEE43CFF8D0290002FEEF0A3EFF034
:0E0DF400A3EAF08B828C838DF012115FFA70EF
:040E020003020A11CC
:070E06008A821208F780CB7D
:0B0E0D00900043E0FABA0003020A1153
:080E180090004E744DF0A3742C
:060E200000F030074C90C9
:0E0E26000040E0FA14F8900040F08602EA3333
:0E0E340095E0FBFCFE90002FEAF0A3EBF0A38C
:0B0E4200ECF0A3EEF0300603020EE718
:0E0E4D0090002FE0FAA3E0FBA3E0FCA3E0FE80
:0E0E5B007B007C007E0090002FEAF0A3EBF0FD
:080E6900A3ECF0A3EEF080768B
:0C0E710030082A900040E0FA24FCF890C1
:0E0E7D000040F08602088603088604088606F8
:0E0E8B0018181890002FEAF0A3EBF0A3ECF07B
:050E9900A3EEF080490A
:0E0E9E00900040E0FA24FEF8900040F086023A
:0E0EAC0008860318EB3395E0FCFE90002FEA59
:0C0EBA00F0A3EBF0A3ECF0A3EEF0200698
:0E0EC6002090002FE0FAA3E0FBA3E0FCA3E0E5
:0E0ED400FE7C007E0090002FEAF0A3EBF0A35E
:050EE200ECF0A3EEF0AE
:0C0EE70030063E90002FE0FAA3E0FBA3D1
:0E0EF300E0FCA3E0FE30E72B90002FE0FAA316
:0E0F0100E0FBA3E0FCA3E0FEC3E49AFAE49B4D
:0E0F0F00FBE49CFCE49EFE90002FEAF0A3EBB6
:090F1D00F0A3ECF0A3EEF0800259
:020F2600C20601
:080F2800D20A900043E0FC75C1
:030F3000104D75EC
:040F330011007D002C
:0E0F3700900033E4F08C82C004C005120981E2
:0C0F4500D005D004200A32C00490003314
:0A0F5100E0FFC4FF851082851183C4
:0A0F5B00E0FA420785108285118339
:0A0F6500EFF0151074FFB51002152F
:010F6F001170
:080F700090004EE510F0A3E52E
:060F780011F0D004800C12
:090F7E00900033E0FF851082852C
:030F87001183F0E3
:090F8A000D900046EDF0B20A9052
:0E0F9300002FE0FFA3E0FAA3E0FEA3E0FBEFD7
:0C0FA1004A4E4B709190004EE510F0A3FA
:090FAD00E511F0900046EDF09012
:0C0FB6000044E0FA70069000447401F062
:0A0FC20020032720022474012DFAF9
:050FCC00900044E0FB71
:0D0FD100C3EA9B5011758220C002C00312BC
:090FDE0008F7D003D0021B80EAE1
:050FE700900044EBF056
:0A0FEC0030061275822D1208F790EE
:0B0FF6000044E0FA14900044F0802F4B
:0C100100900046E0FA602830041275826E
:0B100D002B1208F7900044E0FA14904A
:051018000044F080130C
:0A101D003005107582201208F790CC
:091027000044E0FA14900044F0CA
:0910300020022F900046E0FA9026
:041039000044E0FB94
:0E103D008B041B900044EBF0C3EA9C5036304D
:06104B0003047C3080026A
:021051007C2001
:0E1053008C82C002C0031208F7D003D00280C6
:01106100DBB3
:0E106200900044E0FA900046E0FCC39A50096A
:09107000900044EAC39CF0800CDE
:07107900900044E4F0800543
:05108000900044EBF0BC
:0D10850090004EE0FAA3E0FB900046E0FC76
:0A1092008C061CEE6040B20A200A32
:06109C00150ABA00010B69
:0E10A2008A828B83E0FEC4540FFE900033F070
:0210B000800EB0
:0E10B2008A828B83E0FE53060F900033EEF02F
:0E10C000900033E0FEF582C002C003C00412AF
:0A10CE00093FD004D003D00280BA1D
:0610D800200203020A11D0
:0510DE00900044E0FA5F
:0910E3008A031AEB7003020A11E2
:0C10EC00758220C0021208F7D00280EBD1
:0810F8008D821208F7020A11B3
:0C110000900034E0FAA3E08A82F583221C
:0B14A2003C4E4F20464C4F41543E0092
:0E110C00AAF0AB83E582900050F0A3EBF0A3B5
:0E111A00EAF07A007B00900050E0FCA3E0FDBC
:03112800A3E0FE43
:0E112B008C828D838EF012115FFFA3AC82AD1B
:0E11390083900050ECF0A3EDF0A3EEF0EF6019
:08114700070ABA00DF0B80DC8F
:0E114F00900050ECF0A3EDF0A3EEF08A828B3E
:02115D008322EB
:03003600758121B0
:0A003900120097E5826003020092B6
:0E115F0020F71430F6148883A88220F507E6E6
:06116D00A8837583002237
:03117300E280F720
:03117600E49322DD
:02117900E02272
:0E117B00E582900053F0900053E0FABA610054
:0B1189004009EA248540047582012221
:04119400758200223E
:00000001FF
